:020000040000fa
:080000000001040000000000f3
:020000040000fa
:0400080030030000c1
:020000040000fa
:04000c0030030000bd
:020000040000fa
:0400100030030000b9
:020000040000fa
:0400140030030000b5
:020000040000fa
:0400180030030000b1
:020000040000fa
:04001c0030030000ad
:020000040000fa
:0400200030030000a9
:020000040000fa
:0400240030030000a5
:020000040000fa
:0400280030030000a1
:020000040000fa
:04002c00300300009d
:020000040000fa
:040030003003000099
:020000040000fa
:040034003003000095
:020000040000fa
:040038003003000091
:020000040000fa
:04003c00300300008d
:020000040000fa
:040040003003000089
:020000040000fa
:040044003003000085
:020000040000fa
:040048003003000081
:020000040000fa
:04004c00400200006e
:020000040000fa
:04005000a802000002
:020000040000fa
:040054003003000075
:020000040000fa
:040058003003000071
:020000040000fa
:04005c00300300006d
:020000040000fa
:040060003003000069
:020000040000fa
:040064003003000065
:020000040000fa
:040068003003000061
:020000040000fa
:04006c00300300005d
:020000040000fa
:040070003003000059
:020000040000fa
:040074003003000055
:020000040000fa
:040078003003000051
:020000040000fa
:04007c00300300004d
:020000040000fa
:040080003003000049
:020000040000fa
:040084003003000045
:020000040000fa
:040088003003000041
:020000040000fa
:04008c00300300003d
:020000040000fa
:040090003003000039
:020000040000fa
:040094003003000035
:020000040000fa
:040098003003000031
:020000040000fa
:04009c00300300002d
:020000040000fa
:0400a0003003000029
:020000040000fa
:0400a4003003000025
:020000040000fa
:0400a8003003000021
:020000040000fa
:0400ac00300300001d
:020000040000fa
:0400b0003003000019
:020000040000fa
:0400b4003003000015
:020000040000fa
:0400b8003003000011
:020000040000fa
:0400bc00300300000d
:020000040000fa
:0400c0003003000009
:020000040000fa
:0400c400080200002e
:020000040000fa
:0400c8003003000001
:020000040000fa
:0400cc0030030000fd
:020000040000fa
:0400d00030030000f9
:020000040000fa
:0400d40030030000f5
:020000040000fa
:0400d80030030000f1
:020000040000fa
:0401080030030000c0
:020000040000fa
:04010c0030030000bc
:020000040000fa
:0401100030030000b8
:020000040000fa
:0401140030030000b4
:020000040000fa
:0401180030030000b0
:020000040000fa
:04011c0030030000ac
:020000040000fa
:0401200030030000a8
:020000040000fa
:0401240030030000a4
:020000040000fa
:0401280030030000a0
:020000040000fa
:04012c00300300009c
:020000040000fa
:040130003003000098
:020000040000fa
:040134003003000094
:020000040000fa
:040138003003000090
:020000040000fa
:04013c00300300008c
:020000040000fa
:040140003003000088
:020000040000fa
:040144003003000084
:020000040000fa
:040148003003000080
:020000040000fa
:04014c00300300007c
:020000040000fa
:040150003003000078
:020000040000fa
:040154003003000074
:020000040000fa
:040158003003000070
:020000040000fa
:04015c00300300006c
:020000040000fa
:040160003003000068
:020000040000fa
:040164003003000064
:020000040000fa
:040168003003000060
:020000040000fa
:04016c00300300005c
:020000040000fa
:040170003003000058
:020000040000fa
:040174003003000054
:020000040000fa
:040178003003000050
:020000040000fa
:04017c00300300004c
:020000040000fa
:040180003003000048
:020000040000fa
:040184003003000044
:020000040000fa
:040188003003000040
:020000040000fa
:04018c00300300003c
:020000040000fa
:040190003003000038
:020000040000fa
:040194003003000034
:020000040000fa
:040198003003000030
:020000040000fa
:04019c00300300002c
:020000040000fa
:0401a0003003000028
:020000040000fa
:0401a4003003000024
:020000040000fa
:0401a8003003000020
:020000040000fa
:0401ac00300300001c
:020000040000fa
:0401b0003003000018
:020000040000fa
:0401b4003003000014
:020000040000fa
:0401b8003003000010
:020000040000fa
:0401bc00300300000c
:020000040000fa
:0401c0003003000008
:020000040000fa
:0401c4003003000004
:020000040000fa
:0401c8003003000000
:020000040000fa
:0401cc0030030000fc
:020000040000fa
:0401d00030030000f8
:020000040000fa
:0401d40030030000f4
:020000040000fa
:0401d80030030000f0
:020000040000fa
:100200006fa520000eff20000e01880000000000f6
:10021000000020000000e000020032000001200089
:1002200020028800140007001f0107000000e00002
:1002300003003a0040432200010020000200370082
:100240000000200001002000810f7000010032003a
:1002500014000700000020000000e000020032004f
:1002600000000200000000008e25020000000000d7
:100270000040da000000fe004440a900e008200031
:100280000000e0000300320000002000a001880010
:100290004440a800000006008a1f78008b1f7800e9
:1002a0000000060091018800800478000000eb0047
:1002b0001a003700e284440032a0b4009905ba0065
:1002c000e284440032a0b4009906ba00e2844400fb
:1002d00032a0b4000006eb00476fde00fd07b2005d
:1002e000636ce10003003a00ebff07000000eb0045
:1002f0000a003700606ce10004003a00005deb008a
:100300008b05e900fdff3e00040037006168e10055
:10031000010032000086eb000b00070019c7ba008d
:100320001905ba000e04e00003003a000a00e000dc
:10033000e0ff3a0000000600fe07b2009e018800c0
:100340008a047800f5ff3700395dba008b05e900b3
:100350000c003200295dba008b05e900080032006c
:100360000c00e00003003a00e284440032a0b40034
:10037000f5ff370019ddba008b05e900faff3a00f6
:100380008904e800e184440032a0b40000000600c3
:10039000000000000000000000000000000000005d
:1003a000000000000000000000000000000000004d
:1003b000000000000000000000000000000000003d
:1003c000000000000000000000000000000000002d
:1003d000000000000000000000000000000000001d
:1003e000000000000000000000000000000000000d
:1003f00000000000000000000000000000000000fd
:1004000000000000000000000000000000000000ec
:10041000809fbe003400f80000002000a00188008a
:100420000000fa0021528000d0518000808f5000df
:100430000a003a00100020001052880031098000a4
:10044000907c84000080500000528800907c8400e2
:1004500030098800442aef0001003700422aef00eb
:10046000205280000000e8002052880088e0a900a7
:100470000080fa003400f9004f00be000040060082
:10048000809fbe00821f78003400f800000020002a
:10049000a00188000200fa0090108000004f780050
:1004a000114a8000f0032000808f500010003e00b1
:1004b000214a800080942000008040001e4878007f
:1004c000104a80000000e800104a8800214a80009d
:1004d000f0032000808f500003003200204a80008b
:1004e0000000e800010037000000eb00204a88000f
:1004f00070108000610060000000e000e6ff3a003c
:10050000b01680006100600000f0a7000000ea0063
:100510000000e9004f00de00004078000080fb0092
:1005200061006000b2168000e1ff2f0081006100d1
:1005300001007000b01688008520a9000080fa0034
:100540003400f9004f0178004f00be000040060063
:10055000809fbe00821f78003400f8000000200059
:10056000a00188000000fa0012003700614c8000f2
:10057000e098200000804000104078000000fb0060
:1005800080108800614c8000f0032000808f5000b4
:1005900003003200604c80000000e80001003700da
:1005a0000000eb00604c8800404c80000000e90037
:1005b000404c8800404c80000000e0000500320004
:1005c0007110800000202000008060000000e0002a
:1005d000e6ff3200b01680006200600000f0a70065
:1005e0000000ea000000e9004f00de000040780053
:1005f0000080fb006100600000004000b216800037
:10060000d1ff2f008100610001007000b01688004a
:10061000404c800000f0a7000000ea000000ea0063
:100620004f00de00004078000080fb0061006000a9
:100630004a00dd0062048000f1bf2f0081006100ec
:1006400001007000600488008540a9000080fa0065
:100650003400f9004f0178004f00be000040060052
:100660000040da000000fe006900e10004003500ef
:100670006d00e100030034000002b100010032000f
:1006800000000500100005000c02e20004003d001f
:100690000f42ab00020032000f02ab00feff32003f
:1006a0000040da00feff3700000005003200f800cd
:1006b000910188000008bb00410424006210e100a1
:1006c00004003200000220000010e1000a003a009d
:1006d00051042400013b88000500fc005105200066
:1006e000313b8800a10a2000313b880061e7a80067
:1006f00000000000000000003200f90000000600c9
:100700003200f80060042400003b8800f2ff37004c
:100710003200f8009101880041002400013b88006c
:100720000208bb00ecff37003200f800910188009e
:1007300051002400013b8800030120003218bb0057
:100740008301e900fdff3a00e3ff37000001be002e
:100750001f0007000470a70003f0a1006509b100a5
:10076000160032000d0035006828e1000600350053
:10077000f0ff2f00f1ff27000300e00013003b0013
:1007800001002800000005000000400081804800b2
:100790008502e900fcff3a0008003700f88f4200ac
:1007a00002003c008000eb00000005008100d10049
:1007b0000080d3008502e800fcff3a000300e0005f
:1007c00002003b0060001000e080180000000600fe
:1007d000c70ade00f107b200f50fb20008003200d0
:1007e000e1cf4200020032000170a00024000500a9
:1007f000810f70000100320004080500440005006c
:10080000810f700002003a00140005008502e90023
:100810000000400081c04800fcff3b000170a000c8
:100820002400050003836800070028000703630015
:10083000470ade000480a100c71ade000580a1007f
:10084000f70f20000720e100420032000728e100f6
:1008500040003200889fbe008a9fbe008c1f780037
:10086000f107b200f307b2000400e00064003200b8
:100870000170a0000500e000680032000370a000d5
:1008800085054200eb07b1000204b8000302b8007e
:100890008484440060854a00020ab80084844400cd
:1008a0000a854a00030ab800040545000400330025
:1008b0000804d0008984d2000a85d2008b05e900a3
:1008c0006158e1003d00350002102000090161007f
:1008d0000308200089816100f707200087836400f6
:1008e00008867300c84cde00c853dd00878474009e
:1008f0004855de000300e000060032008203760067
:10090000040032008904e80060054d000a88a30055
:100910000c003a00f70f20000758e10044003d00aa
:100920000a70a100c75ddd000a8575008a007300aa
:10093000090078004f0678004f05be004f04be0046
:10094000000006000a05d1008984d3008b05e80069
:10095000f0ff3700881f78000604780006010700c2
:10096000070278000001fd008101fd00020107007f
:1009700087027800850372000778a3000500320023
:100980000001fd008101fd00c80007004f04780050
:1009900000000600850372000748a3000300320030
:1009a000f0ff2f00f1ff2700f8ff370000002000c4
:1009b00001f8270088807000f4ff37008801780074
:1009c0004848dd00808171004848de00c850dd00e5
:1009d00001007000c850de00060478000b017800aa
:1009e000bb00070088807000d2ff37000500e000e0
:1009f00005003200170020007d0007009dff370032
:100a000081037000f9ff3a00860078004f067800f5
:100a10004f05be004f04be000000050083037100b7
:100a2000f9ff3200270020007100070094ff370013
:100a300001f8270086807000f4ff370002025000a2
:100a400083825800610039000303710062003200a4
:100a500005037200590032000300e0005500330026
:100a600017003a000100e0004b0032000208e100ec
:100a700006003100110009004288d8000101780009
:100a80008001eb008000eb00000006006110e10037
:100a9000550032000002be00110009008280d8001b
:100aa0008002780004007800110009004288d80014
:100ab000010178008001eb0085007800000006004d
:100ac000889fbe008a9fbe008c9fbe000386cf0019
:100ad0000c06e9008c1f78008c19dd00f00216006e
:100ae0000512de00848171000c11dd000003be00e0
:100af0008004eb00053cde008c3bdd000532de00af
:100b0000848373000c33dd000700780088007800d0
:100b1000110009004388d8000202b8000306b8009b
:100b20008c82420060854e008005eb000402530079
:100b300085825b000a055c008b855c000b0033003e
:100b40008000eb004f0678000c21de0070051600d7
:100b50000a2ddd000a0171008c29de004f06be005f
:100b60004f05be004f04be00000006000202420016
:100b700083824a0060054d00e0854d000000e900d9
:100b80000b00e000eeff3d000202420083824a00bb
:100b90000000e900eaff37000000e0001200320028
:100ba000110009000280d800010178008000eb00ec
:100bb000000006000401be00010037006011b8000b
:100bc000100020008000eb00000006000001be00c5
:100bd0006000b800000006000001be00f0ff2f001a
:100be000f1ff2f00000006006011b80000000600b1
:100bf000889fbe000004eb006138e10016003a0057
:100c00000100e00008003a00c800de004800dd00f6
:100c1000880020000100e00003003a00c800de0068
:100c20004800dd00680444008184cf00e98454005a
:100c3000060034008908dd00f08314008703de001d
:100c4000878070000900dd0009044400610214007f
:100c50004f04be00000006000300e00008003a0058
:100c6000c811de004811dd00880020000300e0000c
:100c700003003a00c811de004811dd00680444009a
:100c80008384cf00e9845400060034008919dd0014
:100c9000f08314008713de00878171000911dd00e5
:100ca00009044400e1021400e9ff37000478a300be
:100cb000040032000578a300030032000168a3009d
:100cc00001003a000200be000160a0000000060022
:100cd0000100e00026003200610111007810e100ff
:100ce00023003c006022b8007010e10004003500d1
:100cf00080027800010078008000eb007001510054
:100d00000200e0000900340070031100062add0033
:100d1000822ade008603dd00878272000200de0088
:100d2000860bdd00070070008208de008481710000
:100d3000f4ff27000482620084817100040028000f
:100d4000848262006102600005f0a60000000600d7
:100d500004827100070032000000e800e0804800d3
:100d6000000006000002be006000b800efff370080
:100d70006000b800000006002700200001f0a70076
:100d800017002000470bde00f60fb200040032000f
:100d90000643e8000a0032004702b30000000600e4
:100da00001037800f607b2000603700002003a0063
:100db0000703b300000006008702b300000006002e
:100dc00001037800f607b20006037000020032004b
:100dd0000770a000000006000760a00000000600e9
:100de000889fbe008a9fbe008c9fbe008e1f780029
:100df000010678000c00e00001003200000e7800cf
:100e000080047800090578008a047800b905fb00a1
:100e10000b00780014fe07000000e000f9ff3a0024
:100e2000d0022000808f550003003a0009057800a9
:100e300018c0b300050037000044eb00b0022000ea
:100e4000808f550001003a00090578006000b80065
:100e50008004eb000007eb00010037000a05e80002
:100e60000a0178000848a30005003a00e3c2b30075
:100e70009acf110002003a000844a000f7ff3700a3
:100e80009a4578008b01fb000303b100e98f510004
:100e900016003e000814a0000801fb00e98f540072
:100ea0000e0032000248a300010032000e07e900e4
:100eb0008904e800a200200003002000630107006d
:100ec00002cdb30002c145000281fb008001eb00ae
:100ed0000000410081804900e0ff37000248a30084
:100ee000deff3a000e07e800dcff370053c6b30010
:100ef00083cf5500040032008004eb0053c4b300dc
:100f000083cf55002d003a005a417800d3c2b30078
:100f1000834f510002003a000834a000030037005c
:100f2000b3c2b300834f510001003a000a05e80044
:100f30000a017800020578003a42780003c3b30042
:100f4000834f5200faff32008402fb000503b10018
:100f50008004eb00e98f520015003e0083445200ec
:100f60008984fb000a017800124278008402fb00a9
:100f70000503b100e98f52000d003e006a4bb90035
:100f8000834452008984fb008684440052427800e6
:100f90008402fb000503b100e98f520004003e000b
:100fa0006a4bb900834452008984fb008684440064
:100fb0000838a300010032008904ea000c00e000b8
:100fc000030032000818a30001003200020e78006e
:100fd0001b0107000005be000006be006011b8003e
:100fe00013010700000178006000b8000200e00073
:100ff000580032008e84440032f82f00828f540053
:1010000003003d0022022000925288005100370068
:1010100000082000808f54000700340020022000c8
:10102000905288000808a30045003200000020000c
:1010300001f82f00470037000900e0001b003d00c9
:101040008904ea0006003700922f20005301250092
:101050000a00be00030107000005be00ea84540038
:10106000e98f5400f8ff3c00060037000200200022
:10107000031224000a00be00fa0007000005be00ab
:101080008904e9000900e000f8ff3a000a06be0002
:1010900002002000030820000a00be00e400070050
:1010a0000000e00021003d001b0037000900e000c7
:1010b00007003a001d003700922f20005301250041
:1010c0000a00be00d7fd07000005be00ea845400f8
:1010d000e9cf5400f8ff3e00060037000200200070
:1010e000031224000a00be00cefd07000005be006a
:1010f0008904e9000900e000f8ff3a000a06be0092
:10110000f2ff2f00f3f727000a00be00ca00070015
:101110000000e000050034000808a3000b003200c6
:1011200000002000010828000a0037000808a3007a
:10113000010032000df0a2000c00be0005003700d7
:101140000000200001f82700020037000000200006
:10115000010820004f0778004f06be004f05be0073
:101160004f04be00000006001dff37008000eb00aa
:101170001bff3700800078000100780030417800c4
:1011800003c2b300834f5100faff3200e94f510010
:10119000f8ff3200edc14100834f510003003a00d7
:1011a0008000780013c0b300050037008041eb00d9
:1011b000b4c2b300844f510001003a0080007800af
:1011c0000000eb00020037006a02b9000400410091
:1011d0003101fb000203b100e90f5100faff3600b4
:1011e0000304e000010032000000ea0000000600f5
:1011f000000478002a0007000800780022fd07009c
:101200000003780081027800850178000100370032
:1012100004037800110009008281d8008001780061
:101220000602e8000300e000f9ff3a00034a7800f4
:10123000110009008282d800000278008141780004
:1012400084027800e9cf510001003400e7c1410079
:1012500001c3b30001d341000400e000f4ff3a00f1
:101260000600780000000600881f7800000478005f
:101270000100e00005003d0008007800d3c2b30083
:10128000035878008100ea00010037000800780068
:10129000dbff0700080078004f047800000006001c
:1012a00000000600b041780031c1510002003a0050
:1012b0000304e000fbff3a000200fb000000060010
:1012c00000017800b1417800035978000304e00080
:1012d000fcff3a0000000600800078003104e000c6
:1012e000feff3a000080ea00008040000000060097
:1012f000889fbe000004be000800e00003003a0022
:10130000a85280000800e000130032000800be0070
:1013100027000700000444001804e00004003a001d
:101320000000eb00a05288000004eb000a00370028
:101330000800be000b00070000004400a052880017
:101340001004e000020032000058eb0001003700fa
:101350000000eb00a0528800080078004f04be0097
:1013600000000600889fbe008a1f780001057800f3
:10137000800478000004eb00010037000804e80056
:10138000b94078000104e000050032008100fb0054
:101390000a007800190007000000e000f7ff3200a3
:1013a000080078004f0578004f04be0000000600da
:1013b000889fbe008a1f78000105780080047800ad
:1013c0000004eb00010037000804e800b940780091
:1013d0000104e000050032008100fb000a007800f3
:1013e000060007000000e000f7ff3a000800780060
:1013f0004f0578004f04be00000006000001eb001e
:101400006103b8006112b8008601420066427a00aa
:10141000814f5200040032000201e8000404e000a1
:10142000f7ff3a008001eb0003007800000006009f
:101430001400200070013700f4ff2f006e01370008
:101440004f89de008201780086013700020ab90068
:10145000001bb9000200b800810042008100430077
:1014600000000600889fbe008a9fbe008c9fbe00c1
:101470001b0020000202be0005866800060028004e
:10148000060666004709de00f20fb2008200320055
:101490000243e80080003200c729de00f30fb200eb
:1014a0007d0032000343e8007b003200f107b20008
:1014b0000170a000f507b2000570a000c708dd00ac
:1014c0004903de00868070004700dd00c72add008a
:1014d0004923de00868272004722dd0003055100a9
:1014e00004035000858358000300310000004000d1
:1014f000818048000a05e9008c1f78008a9fbe00a1
:1015000004005000858058000402420085824a0091
:1015100000004000818048000005eb000004be0090
:101520006033b8000406be000d48e10056003100eb
:10153000110009004dccd8000c01b8000d02b80014
:101540008481410060824a008283530003045c006e
:1015500084845c0060055d000a00e00025003a001c
:10156000800578000d40e1004900310088007800d6
:1015700007007800110009004d88d8000c01b80060
:101580000d02b8008481410060824a0060031100ae
:1015900083835b0004045c00e0845c000900e000dd
:1015a00021003a004f01be000300e0002b00320092
:1015b000e3016000070673008c81710001003200b6
:1015c000640070004200de004e5edd000c00700022
:1015d000c258de0001e0a000b4000700cf0178008f
:1015e000818071004f06be004f05be004f04be0053
:1015f000000006008c8343000d044c00e0844c0086
:1016000060054d000000e9000a00e000d4ff320050
:101610008c8343000d044c00e0844c0060054d00b9
:101620000000e900ceff37000c0343008d834b0020
:1016300060044c00e0844c000000e9000900e00078
:10164000d8ff32000c0343008d834b0060044c0034
:10165000e0844c000000e900d2ff37004200de00c9
:101660004e5edd000c007000c258de0001e0a000fc
:10167000cf0178000300e000daff320060001000c4
:10168000e0801800d7ff3700f0ff2f00aaff3700d7
:10169000f0ff2f00b9ff37000404be00b6fd0700bd
:1016a000870678000004fd008104fd00b2fd0700fc
:1016b000078366000678a300030032000960a700d4
:1016c0000800be002c0037000d78a3000200320095
:1016d0000800be00280037000778a30026003a0063
:1016e00001f0a10009f0a1000668a3000300320088
:1016f000f1ff2700f0ff2f00baff37000d68a300ad
:10170000030032000800be008c807000b5ff370077
:101710000768a30007003a000648a3000300320050
:10172000f1ff2700f0ff2f00aeff37000d48a300a8
:10173000030032006000b8008c807000a9ff370001
:101740000748a3000400320001f827000000200031
:101750008c807000a3ff3700210007000004fd000b
:101760008104fd00020578001d0007000802be008c
:101770008a01780059ff37000160a00012022000a2
:101780009252880097ff37000100e00012003200fb
:101790000500e00010003200889fbe008a9fbe0056
:1017a0008c9fbe000006eb0001f8a300030032008e
:1017b00060001000e08018000cf0a00005f8a30005
:1017c0000300320060021200e0821a000cf0a20056
:1017d0008005eb0041ff37006000b8000200050003
:1017e0004f0ade004709de00f107b200f20fb20037
:1017f0000b003200f207b1000170a000c708dd0045
:10180000c901de00838070004700dd000400a600ef
:101810000000060060001000e080180000000600d4
:10182000810f700001003a00000006008182cf00a5
:101830000500e00010003e008082cf00ee824200f2
:101840007028e1000400390007003e0080007800a5
:101850000000eb000e003700708312008600de00ef
:101860000500dd000a003700708352008600dd00ad
:101870000000eb0006003700e28252008508dd0020
:10188000708312000603de00868070000500dd0014
:101890007507b0000501ea000400a600000006007c
:1018a00060001000e0801800000006008101700058
:1018b000270032008002eb0001f8a3000300320091
:1018c00060001000e080180015002000f4072000e0
:1018d0000202420020003400f7032000870360006a
:1018e00006042000000363000208200000016100dc
:1018f0004700de00c909dd0000807100c708de0076
:101900000600e00008003200870371000600320084
:101910001000b0000180b0000188a3000200320076
:10192000c108de000402e800f107b200f30f200056
:101930000320e10003003d004722dd00810072002a
:101940002900370001f827000000eb0026003700cf
:101950006000b80000000600680212007f20e1006d
:10196000020034006000b8001f0037006011b800aa
:101970007020e1000400350080017800010078004b
:101980008000eb00700252000400e0000900340007
:10199000f00312000719dd008419de000703dd00e3
:1019a000868171000400de00070bdd000600700078
:1019b0008408de00f7ff270083836300870371003c
:1019c0000600280003036300070032000700e00060
:1019d00003003a00610160000281730002003200de
:1019e0001000b0000180b0000500a6000000060055
:1019f00001f0a00000000600889fbe008a9fbe0084
:101a0000841f78007c0007004f007800110033002d
:101a1000f0ff2f00838f6c0006003b00040565007b
:101a20000a00a7000800370009f0a60010002000f7
:101a300008003700820f5400838f5c0003003900d8
:101a40001000200001003e000000200009f0a70067
:101a50000000ea004f05be004f04be000000e00099
:101a600000000600881f7800030478000300e000ef
:101a700007003d0060001000e080180060011900c0
:101a8000e081190002003b0001f02d000300370047
:101a90000400070008f0a70001f0a0004f04780040
:101aa00000000600889fbe008a9fbe000082700072
:101ab0000402710004827100260032000004be009e
:101ac0000200be006011b8006b09200095022000e2
:101ad0000182cf000a0039000541b1000082cf0029
:101ae000070039000541b1000982cf000400390028
:101af0000541b1000882cf00010039000541b10065
:101b000005425200120032000a003b00828171003f
:101b1000610164008100d1000080d3008984d3007a
:101b20000884d3008b05e8000442e800f7ff3a0080
:101b3000070037000804440089844c000000480076
:101b4000818048008b05e9000442e900f9ff3a0072
:101b5000030007004f05be004f04be000000060052
:101b600081002000618055000b003d000b0020002b
:101b700061fe2f000100e1001d0034008281710030
:101b8000610164008904d1000884d3000000e800ea
:101b9000faff3a0071002000610064000300700049
:101ba000020060000900320061044400e0844c003f
:101bb0000988a500050032008b05e8006808e100ef
:101bc00002003a008904d1000884d300f20f2000fb
:101bd0000258e10005003d00c75ddd00f907b200d5
:101be0008980750008007800000006000bf82700c7
:101bf0008b007800000005000004be00f4fa070026
:101c00000003be000405be000200be00f0fa07009b
:081c1000844f7500000006007e
:020000040000fa
:101c18002a000000556e00006b6e00006f77000010
:101c28006e0000004e6f00007445000078690000e7
:101c380073740000004e00006f74000053750000bc
:101c480072700000706f000072740000004e000097
:101c58006f7400004578000063750000746500002b
:101c6800004e00006f7400004469000072650000b7
:101c7800637400006f720000790000004e6f00006e
:101c8800744600006f7500006e6400004f75000018
:101c98007400000046650000774900006e7000007f
:101ca8007574000073000000466900006c65000050
:101cb80054790000706500004e6f00006e650000ea
:101cc80000460000696c000045540000797000006f
:101cd8006544000069720000656300006f740000cd
:101ce8006f720000790000004e6f00007441000020
:101cf800636300006573000073000000496e000014
:101d08007075000074460000726100007564000080
:101d1800000000000c8e00000e8e0000168e0000e1
:101d28001f8e00002b8e0000358e0000428e0000b2
:101d38004e8e0000588e0000658e0000788e0000e0
:041d4800828e000087
:020000040000fa
:101d4c00657800006974000000650000636800009d
:101d5c006f0000006c7300000070000077640000de
:101d6c0000740000726500006500000063640000f0
:101d7c000073000079730000746500006d000000b2
:101d8c0073650000740000006765000074000000bb
:101d9c006c6f00006f70000000640000656c000048
:101dac006179000000000000a68e00001a150000ea
:101dbc00ab8e000028150000b08e0000421500000c
:101dcc00b38e0000e4150000b78e00006a16000008
:101ddc00bc8e000080160000bf8e0000c0160000f4
:101dec00c68e000002170000ca8e0000be1700004d
:101dfc00ce8e000072180000d38e0000f618000082
:020000040000fa
:101e0c00626900006e0000006578000069740000d3
:101e1c00006100006c6c0000005d00000d00000013
:101e2c002a0d0000006d0000656d00006f7200004f
:101e3c007900000075730000656400003a00000032
:101e4c0066720000656500003a0000006d650000d8
:101e5c006d6f0000727900005b4b0000425d00006a
:101e6c00002d00006e730000002d00007573000043
:101e7c00002d00006d730000000000003a0000000f
:101e8c00200d00000a000000726f00006f7400004b
:101e9c00002e0000002e00002e0000006f700000cd
:101eac00656e0000206200007573000000000000e9
:101ebc00686500006c6c00006f200000776f0000fc
:101ecc00726c000064200000696e00002065000048
:101edc0065700000726f00006d2e00000a0000009b
:101eec00656e000076000000746500006d700000e7
:101efc00000000006d7400007200000064740000ab
:101f0c000000000073620000696e00000000000019
:0c1f1c00a086000001000000ff7f000014
:020000040000fa
:101f28007273000074000000736500006c0000000c
:101f3800948f0000ec230000988f0000fa23000023
:020000040000fa
:101f480045720000726f0000723a00000000000045
:020000040000fa
:101f58000000fa00b05080000080fa00000006007f
:101f68000000fa00a05080000080fa00000006007f
:101f78000200fa00000f78009e007800a150880047
:101f88000080fa00000006000000fa003b08070085
:101f9800a0f428001d010700b0508800b050800050
:101fa800a05088000080fa00000006000400fa0033
:101fb800000f7800110798001e0078000000e0006c
:101fc80002003a000080eb000d0037001e00900070
:101fd8000000e00002003a00e0ff2f000800370090
:101fe8001e007800a00090001e00900021009800bc
:101ff8001e0078009e009000210098000000eb0071
:102008000080fa00000006000200fa00000f7800c5
:102018001e0078000000e000040032001e00780076
:10202800300090006f006000010037000000eb00f6
:102038000080fa00000006000400fa00000f780093
:10204800110798001e0078000000e0000900320027
:102058001e007800b000900000ff2f008080600014
:102068001e0090006f006000810070001e00780064
:10207800310098000080fa00000006000200fa0013
:10208800000f78001e0078000000e0000500320014
:102098001e007800b0009000000f20000080600053
:1020a800010037000000eb000080fa000000060085
:1020b8000400fa00000f7800110798001e0078004d
:1020c8000000e0000a0032001e007800b000900016
:1020d800f0f02f00808060001e019000000f2000ab
:1020e80000006100810070001e0078003100980037
:1020f8000080fa00000006002c00fa005017980033
:10210800f00220004007980010c0b3002047980054
:102118005e1090000000e00002003a000000eb00b2
:10212800740037006a004700de10900062fc070068
:102138006a004700200798002e0090009040780021
:10214800f0c2b30080cf50000b003a00b1508000bd
:10215800010f78002e0090000000e800200798008a
:102168002e009000104078000004e00004003a00bf
:10217800b05080005f003700a1508000010f780048
:102188001e007800c0009000010f7800680047002a
:10219800800078002e00900053fc0700300798005c
:1021a8005000370068004700800078000000eb000e
:1021b8004dfc0700300798003e0090000000e0004a
:1021c80003003a001e0078004a00370000000000b3
:1021d800be009000f0f4280030fc07000000e0008a
:1021e800f0ff3200150037002e4090000004e00098
:1021f800050032001e00780090009000010f780062
:102208000040eb00204798001e00780090009000e6
:10221800010f780068004700800078000000eb009c
:1022280031fc0700300798003e0090000000e000f5
:1022380002003a001e0078002e003700be00900011
:1022480010f5280015fc07000000e000e6ff32004a
:102258001e007800100078000000e0002100320025
:102268001e00780010007800800078003e00900082
:102278000afc07000000e00012003a00680047006e
:10228800800078000000eb0017fc0700300798007a
:102298003e0090000000e00002003a001e007800b6
:1022a800140037001e007800c0009000010f78006d
:1022b8001e0078000000e0000a003a000000eb0071
:1022c8000c0037001e007800a0009000010f780075
:1022d8001e0078000000e00002003a000000eb0059
:1022e800040037003e0090000000e000b7ff3a000d
:1022f8001e0078000080fa00000006000600fa00c0
:10230800200798002e0090000000e00002003a002c
:102318000000eb00260037000000eb00000f7800fb
:102328001f0037001e0078008000400080a12000b8
:1023380000804000100078000000e0001700320024
:102348001e0078008000400080a12000008040002e
:1023580010007800c0009000110798000c003700aa
:102368001e00900010007800800078002e00900079
:10237800cafb07000000e00002003a001e009000bf
:102388000b0037001e009000a00090001107980075
:102398001e0090000000e000f1ff3a001e0fe80068
:1023a8001e007800e70f5000deff34000000eb004d
:1023b8000080fa00000006000400fa0010079800e8
:1023c8001e0090004cff0700000f78001e007800e8
:1023d8000000e000020032001e007800090037000b
:1023e8001e009000c5ff0700000f78001e0078004f
:1023f8000000e000020032001e00780001003700f3
:102408000000eb000080fa00000006000400fa005b
:10241800100798001e00900067070700000f78005b
:102428001e0090000000e00002003a000000eb00ef
:10243800070037001e0078000101200031009800d5
:102448001e0078008000eb00410098001e00780014
:102458000080fa00000006000400fa00000f78006f
:10246800110798001e0078000000e00002003a0002
:102478000080eb00180037001e0090000000e0000c
:1024880002003a00e0ff2f00130037001e0078001a
:10249800b0009000000f200000806000f00f500096
:1024a80002003200d0ff2f000b0037001e00900002
:1024b8009e007800110098001e007800c00090006f
:1024c8001e009000210098001e0078009e009000d9
:1024d800410098000000eb000080fa0000000600b0
:1024e8000400fa00100798001e0090000000e000a9
:1024f80002003a000080eb00170037000000eb00f4
:10250800000f7800100037001e007800800040009f
:1025180080a1200000804000100078000000e0004a
:1025280008003a001e0078008000400080a12000ca
:10253800008040009e009000010878000000eb0039
:10254800050037001e0fe8001e007800e70f500056
:10255800edff34000080eb000080fa000000060068
:102568000200fa000000eb00000f780007003700b7
:102578001e0078008000400080a1200000804000fc
:102588008000eb00010878001e0fe8001e007800ac
:10259800e70f5000f6ff34000080fa000000060044
:1025a8005c00fa00502f98000000eb00000f780044
:1025b8000000eb00100798000000eb0020079800cf
:1025c8000000eb003007980041f428005e289000d6
:1025d80045fb0700400798001e00780000004000f7
:1025e80000004700a004b000ce0090000108780069
:1025f8000b0037001e0fe80041f428000000eb0034
:1026080039fb0700400798001e00780000004000d2
:1026180000004700a004b000ce0090000108780038
:102628004e0090000000e0002f0032002e009000c5
:10263800e70f5000efff34002b0037000000eb00dd
:10264800200798001e00900000004000000047008e
:102658005020900061f4280023fb070040079800f1
:102668002e00900000004000000047006a00400073
:10267800ce009000010878000d0037002e00900071
:102688000000e8002007980061f428000000eb0033
:1026980015fb0700400798002e009000000040003e
:1026a800000047006a004000ce0090000108780052
:1026b8004e0090000000e000030032002e00900061
:1026c800ff0f5000edff34006a00470080007800db
:1026d8002e0090000a000700300798001e009000a6
:1026e8000000e800100798001e0090009e0f5000a0
:1026f800d2ff35003e0090000080fa00000006007e
:102708000600fa0010079800210798002e00900094
:102718001000780028ff0700000f78001e007800de
:102728000000e00003003a0020002000d70807005e
:10273800180037001e007800b0009000000220004a
:102748008080600000022000808f50000f003a0057
:102758001e007800300090006100600000407800a2
:102768000004e000060032001e00780040019000de
:10277800ae0090001e009000020001000500370026
:1027880030002000c1080700020037004000200088
:10279800be0807000080fa00000006000600fa00e4
:1027a80010079800210798001e0090008206070075
:1027b800000f78001e0078000000e00002003a00d8
:1027c8000000eb00070037001e007800110220000f
:1027d800310098001e007800ae009000410098007b
:1027e8001e0078000080fa00000006000800fa00c9
:1027f8001007980021079800320798001e009000e3
:102808006d060700000f78001e0078000000e00049
:1028180002003a000000eb000e0037002e00900086
:102828000000e00002003a000000eb000900370059
:10283800be00900000032000810070001e00780098
:10284800310098001e007800ae009000410098000a
:102858001e0078000080fa00000006000800fa0058
:102868001007980021079800320798001e00900072
:1028780051060700000f78001e0078000000e000f5
:1028880002003a000000eb000e0037002e00900016
:102898000000e00002003a000000eb0009003700e9
:1028a8003e009000800078000160a0001e007800c3
:1028b800310098001e007800ae009000410098009a
:1028c8001e0078000080fa00000006000200fa00ee
:1028d800000f78009e007800415188000080fa00bf
:1028e800000006000200fa00000f78009e00780041
:1028f800515188000080fa00000006000200fa002a
:10290800000f78009e007800615188000080fa006e
:10291800000006000000fa00d003070040518000c4
:102928000000e00002003200405180000000010079
:102938000080fa00000006000000fa00c703070044
:10294800505180000000e000020032005051800029
:10295800000001000080fa00000006000000fa00f4
:10296800b703070040f52800f1030700c10307007b
:10297800605180000000e0000200320060518000d9
:10298800000001000080fa00000006000800fa00bc
:102998001007980021079800320798000000eb0004
:1029a800000f78000f0037001e0078004200dd009d
:1029b800ae00900000804000900090001e0078005b
:1029c8004200dd002e019000000041001000780058
:1029d80072ff0700800078001e0090009efe07002e
:1029e8001e0fe8009e0078003e009000808f500087
:1029f800edff39001e0090000080fa00000006007c
:102a08000200fa0060f0280080fe0700000f78003e
:102a1800b2002000a1ed28001e007800dbff0700af
:102a28001e0078000080fa00000006000400fa008a
:102a3800000f780011079800a0f02800bc030700d9
:102a480080002000e8f907000400fa00000f780071
:102a5800110798001e007800e10f500004003400b0
:102a68001e0090000080e80010007800b003070006
:102a78000000eb000080fa00000006002800fa00c1
:102a8800201798003117980035fd070010079800a7
:102a98002e109000e10f500012003a001e00900026
:102aa800c0009000010f7800080037001e00780071
:102ab800100078001e030700c0c2b300020307001d
:102ac8001e007800a0009000010f78001e0078001a
:102ad8000000e000f5ff3a00d0c0b300fa0207009a
:102ae800220037002e109000e20f50001f003a001d
:102af8003e1090000080e80010007800f1f02800f7
:102b0800e6f907000000e00018003a001e009000f7
:102b1800c0009000010f7800110037001e007800f7
:102b28001000780002030700b0c5b300e6020700f2
:102b38001e00780030009000ef006000640047003d
:102b480002012000c6f90700f902070030f1280049
:102b5800f70207001e007800a0009000010f78001f
:102b68001e0078000000e000ecff3a000b030700ad
:102b78000000eb000080fa00000006000200fa00e6
:102b8800000f7800f2fc07009e0f50000900320089
:102b98001e00780010009000f8ff0700f0c2b30094
:102ba800c90207001e00780010007800e002070044
:102bb80001003700000000000080fa000000060055
:102bc8000600fa001007980021079800e4fc0700a7
:102bd800000f7800defc07009e0f50000300320053
:102be8001e007800e5ff070002003700f0c2b300be
:102bf800b5020700d0c0b300250307000000eb00b2
:102c08000080fa00000006000800fa00200798007b
:102c1800310798003e0090000000e00028003200d4
:102c28000000eb00000f780003003700c0c7b300b6
:102c3800a50207001e0fe8002e0090009e007800f5
:102c4800808f5000f9ff35003e009000b0009000e2
:102c5800000f200000806000f00f500014003a00c0
:102c68003e00900010007800b102070060f12800d3
:102c7800af0207003e009000c000900011079800c6
:102c8800070037002e0090000000e8009e0090002a
:102c9800ddff07001e009000a000900011079800bb
:102ca8001e0090000000e000f6ff3a000500370023
:102cb8003e00900010007800af02070001003700c6
:102cc800000000000080fa00000006000400fa007e
:102cd800000f780011079800a1fc07008000780019
:102ce8000000eb00c8ff0700ac0207000000eb0083
:102cf8000080fa00000006000600fa00100798009d
:102d0800210798001e009000e10f500017003400c2
:102d18002e0090000080e80010007800a6fd070053
:102d2800000f78001e0078000000e0000c00320060
:102d38001e007800b0009000000f200000806000a6
:102d4800f00f500003003a001e00780088fc0700ce
:102d580006003700500020004c0707000400370029
:102d68006000200049070700010037000000eb0061
:102d78000080fa00000006002400fa0000179800fe
:102d88001117980090f128007b02070000f2280034
:102d980067020700fe040700a200200080007800f8
:102da8000e0078002ef907007302070060f2280071
:102db8005f020700df040700a200200080007800ff
:102dc8000e00780026f907006b020700c0f2280001
:102dd80057020700f4040700a200200080007800d2
:102de8000e0078001ef90700630207006b02070057
:102df8000000eb000080fa00000006000800fa005e
:102e0800881f7800200798003107980010002000dc
:102e1800000f78002e009000e20f50004b003c009d
:102e280070002000190707004f0037001e007800c7
:102e380000004000be0090000080400010007800b4
:102e4800adfc0700100798001e0090000000e0008d
:102e58003b0032001e0090003000900062006000cd
:102e68000000e000330032001e009000b000900027
:102e7800000f200000806000f00f50000c003200ae
:102e8800f00f500003003e000000e0000b0032008d
:102e98002300370001032000810f50000a00320090
:102ea80001042000810f5000120032001c0037007e
:102eb80090002000f50607002b0037008000200056
:102ec800f2060700280037001e009000400490001a
:102ed8001e0078000000e80000004000be009000de
:102ee8000080400010007800a0f80700000c78006f
:102ef8000e0037001e009000400490001e0078006d
:102f08000000e80000004000be0090000080400083
:102f18001000780093f80700008cbe00030037000b
:102f280030002000d90607000f0037001e8fe80088
:102f380007003700a0002000d40607000a00370069
:102f480020002000d106070007003700000000001d
:102f58009e00e8002e009000808f5000b3ff3500df
:102f68000e0207000000eb004f0478000080fa0012
:102f7800000006002a00fa00301798004117980050
:102f880010002000000f78000040eb002047980058
:102f9800480037002e4090000004e0000200320094
:102fa800c0c2b3003a0207001e00780000004000cb
:102fb800ce10900000804000100078004efc070002
:102fc800200798002e0090000000e0003900320031
:102fd8002e00900030009000620060000000e000c9
:102fe800310032002e009000b0009000000f200049
:102ff80000806000f00f50000c003200f00f50000d
:1030080003003e000000e0000b0032001f00370004
:1030180001032000810f50000a0032000104200043
:10302800810f50000f003200180037009000200078
:103038009606070027003700800020009306070047
:10304800240037002e009000400090009000780087
:1030580066004700a200200081f80700b4010700bd
:103068000d0037002e009000400090001000be00b8
:10307800b4f507008000780066004700a200200031
:1030880077f80700aa010700030037003000200086
:103098007e0607000f0037001e0fe80010c0b300bf
:1030a8002047980003003700a0002000770607009b
:1030b800080037003e1090009e007800808f500076
:1030c800b4ff3500b5010700d0c0b300f001070018
:1030d8000000eb000080fa00000006000800fa007b
:1030e80020079800310798002e009000e10f50004b
:1030f80002003c000080eb00380037003e009000e2
:103108000080e8001000780018f80700000f780029
:103118001e0078000000e0001d0034002e00900022
:103128000080e900200798003e00900064004000fd
:10313800300798000a003700be0090002e0090006b
:103148006ffd0700100798001e0090000000e000c7
:1031580002003d001e009000200037008f0107008c
:10316800ca0007000000e0001b003a0010c0b300ce
:103178009e0078000100e00001003c000040eb00e8
:103188001e0fe9000004e000ebff3a0012003700d0
:103198002e0090000000e900200798003e009000f3
:1031a8000080e8003007980008003700be00900053
:1031b8002e00900052fd07000000e00002003d00d4
:1031c8000080eb000500370074010700af0007001e
:1031d8000000e000f5ff32000000eb000080fa007c
:1031e800000006000800fa00200798003107980040
:1031f800a0002000000f78002e009000e10f500082
:10320800520034003e0090000080e8001000780072
:10321800d6f70700100798001e0090000000e00095
:10322800420032002e009000e20f50003b003400b4
:103238003e00900064004000100078009040780044
:10324800d0c2b30080cf50002c003a003e0090005e
:10325800640040001000780071f328000ff80700a0
:103268000000e00003003a001e009000ab050700d4
:10327800170037003e0090006400400010007800fe
:10328800b1f3280005f807000000e00003003a0049
:103298001e009000aa0507000d0037003e009000b0
:1032a8006400400010007800f1f32800fbf70700e5
:1032b8000000e00003003a001e009000af05070080
:1032c80003003700b0002000f00507002200370097
:1032d8002e009000e30f5000060034003e009000de
:1032e800e60040002e0090006300500004fd070037
:1032f800190037000000eb00170037001e0090008f
:103308008f0507003e009000e40040002e0090006a
:103318000080e900fafc07000f0037001e0090004b
:10332800870507000000eb000b0037001e0078003f
:10333800830507003e0090008080e8002e00900082
:103348000000e900eefc0700030037001e007800cb
:103358007b0507000000eb000080fa000000060073
:103368000400fa001e00780000f0a000000f7800aa
:103378009e007800f0ff2d0000806000000f7800ac
:103388001e00780000a0a000000f78001e00780042
:103398000070a000000f78009e007800f0fb2f005e
:1033a80000806000000f78009e007800f0fd2f007c
:1033b80000806000000f78009e00780090ff2f00ca
:1033c80000806000000f78009e007800e0ff2f006a
:1033d80000806000000f78001e00900000f0a00040
:1033e800100798009e009000f07f2f00008060007a
:1033f800100798001e00900000a0a0001007980079
:103408009e009000f0f32f000080600010079800e5
:103418009e009000711088009e007800611088005e
:10342800a0002000a01088008520a9008540a900e0
:10343800c1048000f0f82f008080600000052000a3
:1034480001007000c0048800c1048000f08f2f00c4
:103458000080600000a0a000c00488008d20a800a3
:103468008d40a8004229ef004629ef00304a80002d
:10347800204a88008829ef008c29ef00604c8000e2
:10348800504c88000080fa00000006000000fa0096
:10349800104a80000080fa00000006000200fa00ce
:1034a800889fbe00004f7800194a8000384a800083
:1034b8000b00370080942000000044001040780082
:1034c8009e4f500002003a000800780007003700bd
:1034d8008904e9008800e800f00320000084600007
:1034e8000900e000f3ff3a000080eb004f04be0043
:1034f8000080fa00000006000400fa001007980097
:103508009e009000304a800080804000f003200038
:10351800008f6000809420001e004000104078005a
:103528000080fa00000006000200fa00000f780090
:10353800304a80009e004000f003200000806000b8
:10354800304a8800104a80001e005000104a880047
:103558000080fa00000006000000fa004229ef008f
:103568000080fa00000006000000fa00881f7800ba
:10357800c6ff07000000e00011003200314a800059
:10358800809420000080400010447800314a800078
:10359800f0032000808f500003003200304a800082
:1035a8000000e800010037000000eb00304a880006
:1035b800104a80000000e900104a88000100370026
:1035c8000044eb00084078004f0478000080fa00bf
:1035d800000006000600fa00881f7800100798000f
:1035e800210798001e0090000000e0002300320030
:1035f8002e0090000000e000200032009e009000a5
:10360800010f7800d8ff070000447800ed4f540000
:103618000c0032001e009000084878001e00900040
:103628000000e800100798002e0090000000e90054
:10363800200798002e0090000000e000f1ff3a00fb
:10364800080037001e0090008040eb000148780019
:103658001e0090000000e800100798001e00780087
:10366800070037001e0090000000e9008040eb00d2
:10367800014878001e007800010037000000eb00c8
:103688004f0478000080fa00000006000000fa00ed
:10369800404c80000080fa00000006000000fa009c
:1036a800414c8000000420000080680000f0a70062
:1036b8000000ea000000e9004f00de00004078004a
:1036c8000080fa00000006000200fa00004f7800af
:1036d800514c8000e0982000008040001e4878008f
:1036e800514c8000f0032000808f5000030032000e
:1036f800504c80000000e800010037000000eb009b
:10370800504c8800404c80000000e800404c880085
:103718001e4078000080fa00000006000000fa0051
:10372800d0c0b300e8ff07000080fa0000000600e0
:103738000400fa00100798009e009000010f78001e
:10374800060037001e009000104078009e00900090
:103758008100e80011079800dbff07001e009000b9
:10376800104078000004e000f6ff3a001e007800e0
:103778000080fa00000006000200fa00000f78003e
:103788001e007800eaff0700d0c0b300ceff070094
:103798001e0078000080fa00000006000000fa0011
:1037a8006104800000402000008060000000e0000c
:1037b8001d003a0012003700614c8000e09820009c
:1037c80000804000104078000000fb008010880056
:1037d800614c8000f0032000808f5000030032000d
:1037e800604c80000000e800010037000000eb009a
:1037f800604c8800404c80000000e900404c880084
:10380800404c80000000e00005003200711080008c
:1038180000202000008060000000e000e6ff320089
:103828008d40a8000100370000000000404c8000d7
:10383800f00f5000fdff3e000080fa000000060077
:103848000000fa008829ef008c29ef00604c800006
:10385800504c88000080fa00000006000000fa00c2
:10386800cda2a800d622a9000f42a9000080fa0024
:10387800000006000000fa00d1a2a800cda2a9000d
:10388800d622a8000f42a8000080fa000000060017
:103898000200fa00004f7800404c80008000e800e9
:1038a800f0032000808f500005003e001e40780085
:1038b80085ff0700b9ff07001e40780001003700a8
:1038c8000040eb000080fa00000006000000fa004b
:1038d800d0c0b300eeff07000080fa000000060029
:1038e8000600fa00200798002e00900078f60700de
:1038f800000f7800404c80009e004000f00320003c
:10390800808f500007003e00ae009000110798001d
:103918002e00900086ff0700a0ff07001e00900001
:10392800010037000000eb000080fa0000000600ec
:103938000600fa00200798002e00900064f60700a1
:10394800000f7800404c80009e004000f0032000eb
:10395800808f500009003e00ae00900011079800cb
:103968002e00900072ff0700d0c0b30056ff07007a
:103978008aff07001e009000010037000000eb00de
:103988000080fa00000006000600fa00dc82a900a8
:103998009e007800f0ff270000806000000f78008c
:1039a8009e007800f0ff2d0000806000000f780076
:1039b8009e007800f0f02f00008060000040a0001a
:1039c800000f78009e00780030ff2f000080600014
:1039d800000f78009e007800c0ff2f000080600074
:1039e800000f78009e007800010e8800c221ef00c9
:1039f800705180000000d100200e88001e00900049
:103a08000090a000100798001e00900000a0a000e1
:103a1800100798009e009000f0fe2f0000806000c4
:103a2800100798009e009000e0ff2f0000806000c3
:103a3800100798001e0090000050a0001007980082
:103a48009e009000d0ff2f000080600010079800b3
:103a58001e0090000060a000100798009e009000d3
:103a6800b0ff2f0000806000100798009e009000b3
:103a7800410e8800ca21ef00cc21ef00d021ef00d1
:103a88002e00900000b0a000200798002e009000a3
:103a980000d0a00020079800ae009000a10e88007a
:103aa800d821ef00da21ef0088e0a9003105800075
:103ab800f0ff2800808060000000260001007000f0
:103ac8003005880090e0a800c1e1a800dc82a900c8
:103ad8000080fa00000006000200fa00000f7800db
:103ae800905180009e007800808f500002003600c0
:103af8009051800007003700b05180009e00780088
:103b0800808f5000020031000000eb0001003700f8
:103b18001e0078000080fa00000006000400fa0089
:103b2800000f7800214798001e007800eaff070080
:103b3800000f78001e0078000000e000020032004c
:103b48002e409000010037000040eb00204798000d
:103b58002e409000e14f500004003a009e0078008b
:103b6800c10e8800da21ef00090037002e409000ce
:103b7800e14f400004003a00d821ef009e00780091
:103b8800d10e880002003700d821ef00da21ef00bb
:103b98000080fa00000006000600fa0010079800ee
:103ba800414798001e0090006101b80070518000e4
:103bb8008000eb00009ab90004027800028bb9007b
:103bc80086027800050242000010b8000102420097
:103bd800840078004109dd004f00de00000071001c
:103be800cf08de00000f7800ce4090001e0078005d
:103bf800caff07000080fa00000006000600fa006d
:103c0800200798002e00900000f0a7000000ea00ae
:103c1800000f78002e0090000000e0000200340041
:103c280010c0b3000100370000c0eb002047980027
:103c3800ae4090001e007800d7ff07000080fa0011
:103c4800000006000200fa00000f78001e0078004d
:103c58000000d100200e88009e0078007151880075
:103c6800805180006101b8001e0078008000eb00e0
:103c7800009ab90004027800028bb9008602780025
:103c8800050242000010b8000102420084007800da
:103c98004008de000000780090518800a0518000a4
:103ca8006101b8001e0078008000eb00009ab9009e
:103cb80004027800028bb9008602780005024200ef
:103cc8000010b80001024200840078004008de00bd
:103cd80000007800b05188000080fa00000006005b
:103ce8000000fa00705180000080fa000000060011
:103cf8000200fa00000f78009e00780081518800c9
:103d0800705180006101b8001e0078008000eb004f
:103d1800009ab90004027800028bb9008602780084
:103d2800050242000010b800010242008400780039
:103d38004008de0000007800905188000080fa00fa
:103d4800000006000000fa00805180000080fa00a0
:103d5800000006000200fa00000f78009e007800bc
:103d6800a1518800705180006101b8001e007800e0
:103d78008000eb00009ab90004027800028bb900b9
:103d880086027800050242000010b80001024200d5
:103d9800840078004008de0000007800b0518800f8
:103da8000080fa00000006000000fa00a051800020
:103db8000080fa00000006000200fa00d00e800021
:103dc800c10e8000810f5000010031000100780011
:103dd800000f78001e0078008000eb00c002dd00b4
:103de80004002000705180008000eb000001be003c
:103df8000400be000ff30700000078000080fa00fe
:103e0800000006000200fa00004f78001e4078000b
:103e18000004a2000080fb000040780061406000c0
:103e28000080fb00610060004400dd00e2168000b5
:103e3800f1fe2f008100610001007000e01688008b
:103e48000080fa00000006000000fa00d902a8006d
:103e5800d822a800d802a800c642a800c622a800f6
:103e6800a802a800a822a800c662a800c682a800c6
:103e7800c6a2a800a862a800a882a800a8a2a800b4
:103e8800d842a900c642a900d202a900d222a9009c
:103e9800dc42a900ca42a900d602a900d622a9007c
:103ea800d1a2a800cdc2a800cda2a900d862a900bd
:103eb800d882a900d8a2a900dc82a8000080fa0054
:103ec800000006000000fa00d016800062006000c2
:103ed80000f0a7000000ea000000e9004f00de0043
:103ee800d1168000e18060000100e00002003a0085
:103ef80081002000010037008000eb0081004000b5
:103f080040168000610060000000e00002003a00f6
:103f180040002000010037000000eb0080804000d6
:103f280040168000620060000000e00002003a00d5
:103f380020002000010037000000eb000080400056
:103f48000080fa00000006000200fa00004f780026
:103f58001e80fb0061006000b2168000e1ff2f00a8
:103f68008100610001007000b01688000080fa002e
:103f7800000006000200fa00000f78001e0078001a
:103f8800e30f500010003200e30f500005003c0022
:103f9800e10f500008003200e20f50000800320024
:103fa8000f003700e40f500009003200e50f500001
:103fb800090032000a003700401680000900370067
:103fc8007016800007003700a01680000500370033
:103fd800d01680000300370000178000010037006a
:103fe8000080eb000080fa00000006000000fa00e4
:103ff800401680004300de00614060000080fb0046
:1040080000f0a7000000ea000000ea004f00de0010
:10401800004078000080fa00000006000000fa0066
:10402800401680004400de00614060000080fb0014
:1040380000f0a7000000ea000000ea004f00de00e0
:10404800004078000080fa00000006000000fa0036
:10405800401680004500de00614060000080fb00e3
:1040680000f0a7000000ea000000ea004f00de00b0
:10407800004078000080fa00000006000400fa0002
:1040880000802000004a88000000eb00000f780044
:104098000c0037001e00e8006a00b90080007800b4
:1040a80000802000008140001e0078006a00b900ee
:1040b800800078000080200000804000020878001e
:1040c8001e0fe8001e007800fe0f5000f1ff3600ba
:1040d8003629ef000000eb00000f780010003700d1
:1040e800028020001e0078006a00b90000007800f5
:1040f80000004100100798001e0090008000eb00af
:10410800210098001e0090008000eb00110098002c
:104118001e0090008000eb00410098001e0fe80090
:104128001e007800fe0f5000edff36000080fa00f8
:10413800000006000400fa00100020001007980094
:10414800004a80000000e00002003a000000eb0096
:104158000d003700014a8000010f78000500370084
:104168001e0090000000e800100798001e0078006c
:10417800100f78001e007800100078000000e000a2
:10418800f7ff3a001e0090000080fa0000000600c9
:104198000000fa00e7ff070001022000008050003d
:1041a8000080fa00000006000000fa000014200059
:1041b8000080fa00000006000600fa0020079800b8
:1041c800004a80000000e00002003a000000eb0016
:1041d80017003700014a8000010f7800004a80006c
:1041e80010007800004a88001e0078008000eb006c
:1041f800010878009e007800110798001e009000c2
:104208008000eb00110098001e0090008000eb0079
:10421800410098001e0090008000eb0021009800eb
:104228001e009000ae009000010878001e0090006b
:104238000080fa00000006000400fa001007980049
:104248009e009000010f7800014a80001e0078004f
:10425800010878009e007800014a88000080fa0072
:10426800000006000400fa009e007800f0ff2d0010
:1042780000806000000f78009e0078000070200029
:1042880001007000000f78009e007800f0f72f0002
:1042980000806000000f78009e007800f0fb2f007f
:1042a80000806000000f78001e0078000050a00019
:1042b800000f78009e00780070fe2f0000806000dc
:1042c800000f78009e007800b0ff2f00008060008b
:1042d800000f78009e007800d0ff2f00008060005b
:1042e800000f78009e007800110988009e00900059
:1042f800f0ef2f0000806000100798009e009000eb
:10430800f0f72f0000806000100798009e009000d2
:10431800f0f82f00008060000040a000100798000f
:104328009e009000210988000080eb004009880069
:10433800907c8400300988008900a9009100a900b8
:104348000080fa00000006000000fa003009800032
:104358000080fa00000006000000fa000052800009
:104368000080fa00000006000000fa0001528000f8
:10437800c051800000017800110009008200d800b7
:104388000080fa00000006000200fa00004f7800e2
:104398001e80fb00610060004700dd0012098000fc
:1043a800f1f72f00810061000100700010098800fa
:1043b8000080fa00000006000200fa00000f7800f2
:1043c8001e0078008000eb0002e224000289b90098
:1043d800020178006002b9008401780003014100fd
:1043e80003e224000300b8000101410082007800c4
:1043f800e0518800f15188001e0078006c00b90077
:1044080000007800d05188000080fa000000060003
:104418000000fa00105280000080fa000000060038
:104428000000fa00e0518000f15180000080fa009d
:10443800000006000200fa000000eb000a00070076
:10444800000f7800e1f528001e0078003200070010
:104458001e007800430007001e00780010000700c7
:104468000080fa00000006000800fa0030079800f3
:104478000000eb00000f78003e0090000000e00014
:1044880004003a0000c02f00f10720001007980030
:10449800210798000000eb000080fa0000000600e9
:1044a8000200fa00000f78000000eb000080fa001c
:1044b800000006000600fa0010079800414798001f
:1044c800f0032000000f78001e00900000209000ec
:1044d8009e0090004e419000827078008000e800b5
:1044e8001e009000012098001e00900000209000ff
:1044f8001e0060009e0f500004003a001e0090004d
:104508001800070010002000010037000000eb0031
:104518000080fa00000006000400fa00000f78008e
:1045280011079800080037001e009000104078001e
:104538009e0090008100e8001107980080407800f4
:104548001e007800dbff07001e0090001040780076
:104558000004e000f4ff3a000000eb000080fa00dd
:10456800000006000200fa00000f78001e00780024
:10457800a0209000102090000202200049f00700bf
:10458800013b800000002800008060000000e0007f
:10459800fbff3a00013b800000002800008060001b
:1045a8000000e000fbff3a000000eb000080fa008a
:1045b800000006000400fa0073f6070064f607001e
:1045c800000f780077000700100798009e00900001
:1045d8001e007800a0f707001e009000c0f7070033
:1045e8000080fa00000006000a00fa0066f60700dc
:1045f80057f60700000f780001f907001007980028
:104608009e0090001e00780093f707001e0090009f
:10461800b3f707006300070020079800ae0090007a
:104628001e0078008cf707002e009000acf70700fa
:10463800e100070030079800be0090001e007800d7
:1046480085f707003e009000a5f7070060f72800ef
:104658006ef7070040079800ce0090001e00780013
:104668007df7070062002000c1a42000a0f7280001
:104678007af80700800078001e00780076f70700b7
:104688000080fa00000006000000fa00e02d220079
:104698008ef80700802f220092f80700802f220052
:1046a80096f807009bf807000080fa000000060053
:1046b8000000fa0011028000f0f12f000080600075
:1046c8001002880011e1a90011a1a90010c1a900d8
:1046d8001081a90010a1a9001061a8001021a9004b
:1046e8000621ef000a21ef000821ef000080fa0000
:1046f800000006000400fa00008fbe001e009000b3
:104708007400b900000178001e0078006000b9004c
:1047180000007800000141009e0078004001200060
:104728000008b8000101410082007800305288007a
:10473800415288000080fa00000006000200fa00da
:10474800004f78001e80fb004f00dd0082088000cb
:10475800f1ff2700810061000100700080088800d7
:104768001e4078000004a2000004e00001003200ae
:104778004a2aef000080fa00000006000000fa0054
:10478800505280000080fa00000006000000fa0085
:10479800ccfd070081528000010040000080fa0033
:1047a800000006000200fa0080f8280017f707004a
:1047b800000f780022002000c1f928001e007800b0
:1047c80072f807001e0078000080fa00000006005a
:1047d8000400fa00000f7800110798000000fe009e
:1047e8000000eb000080fa00000006000600fa0056
:1047f80010079800210798001e009000e10f500054
:10480800130034002e0090000080e80010007800ab
:1048180056f20700000f7800dcff07009e0f5000db
:10482800030032003bf80700d622a9000900370030
:104838001e0078000000e00002003a003ef8070081
:104848000400370045f80700d622a9000100370008
:1048580030f807000000eb000080fa0000000600b6
:020000040000fa
:10486800ce0900004600000000000000400a0000d9
:104878000600000000000000380a000008000000e0
:10488800020000009001b000048084001e000000b7
:104898002e0a00000a000000020000003e06320056
:1048a800f3ee05006626ef00000000004209000054
:1048b8008c00000000000000460a0000060000000e
:1048c800000000004c0a0000040000000200000084
:1048d8000000c80042000000140a00001a0000008e
:1048e80000000000500a0000020000000200000062
:1048f8001000000000080000420100000000000055
:10490800520a00000200000000000000540a0000e3
:0c49180002000000000000000000000091
:020000040000fa
:104924000019b10006003300211b20000100b8006b
:104934000100b100020032001100b100feff3a0094
:10494400000006006500b8008100d1000080d3009b
:104954000a0032000201240022088800100888009e
:104964000021ef008460a9008c60a90005e1a80083
:104974008460ae00ba2404000000000000000600b9
:10498400f10420000100b8000000e0000a00320039
:104994000203240022088800100888000021ef0088
:1049a4008460a9008c60a90005e1a8008460ae00c1
:1049b400d824040000000000000006000200fa00f1
:1049c40000f8280092f60700000f7800a14f22009b
:1049d40040f8280072f70700800078001e00780075
:1049e4009ef607001e0078000080fa000000060012
:1049f4000800fa0020079800310798002e00900064
:104a0400e10f500003003c000000eb007cfc0700b9
:104a14000c0037003e0090000080e8001000780091
:104a2400d1f10700008fbe0002e02f00f36f2400d5
:104a34001e00be007aef070043ef07000000780075
:104a44006ffc07000000eb000080fa000000060085
:104a54000000fa000dff07000080fa0000000600c5
:104a64002000fa00d0c0b3008dfa0700e10f400027
:104a740005003200010220000e007800d6fa07007b
:104a84000e007800c7f607000080fa000000060058
:104a94000200fa00000f780040fa280025fb070006
:104aa4001e007800e1e82800000040006100780062
:104ab400a0fb07001e007800905288001e007800ba
:104ac4000000ea000080fa00000006000000fa007e
:104ad400defc0700adfb0700e3fd0700f5fe070061
:104ae40020fa07000040eb00c7fc07000040eb0081
:104af4000080fa00000006000000fa000080fa00be
:104b0400000006000200fa00000f78000000eb002d
:104b14000080fa00000006000000fa00ebff070026
:0c4b2400cbff0700ceff0700feff3700ac
:020000040000fa
:0200000400fffb
:10f8000000000000000000000000000000000000f8
:10f8100000000000000000000000000000000000e8
:10f8200000000000000000000000000000000000d8
:10f8300000000000000000000000000000000000c8
:10f8400000000000000000000000000000000000b8
:10f8500000000000000000000000000000000000a8
:10f860000000000000000000000000000000000098
:10f870000000000000000000000000000000000088
:10f880000000000000000000000000000000000078
:10f890000000000000000000000000000000000068
:10f8a0000000000000000000000000000000000058
:10f8b0000000000000000000000000000000000048
:10f8c0000000000000000000000000000000000038
:10f8d0000000000000000000000000000000000028
:10f8e0000000000000000000000000000000000018
:10f8f0000000000000000000000000000000000008
:020000040000fa
:0200000401f009
:04000000f6bf000047
:020000040000fa
:0200000401f009
:04000400ff7f00007a
:020000040000fa
:0200000401f009
:04000800dfff000016
:020000040000fa
:0200000401f009
:04001400ffff0000ea
:020000040000fa
:0200000401f009
:04001800ffff0000e6
:00000001FF
