:020000040000fa
:080000000001040000000000f3
:020000040000fa
:0400080030030000c1
:020000040000fa
:04000c0030030000bd
:020000040000fa
:0400100030030000b9
:020000040000fa
:0400140030030000b5
:020000040000fa
:0400180030030000b1
:020000040000fa
:04001c0030030000ad
:020000040000fa
:0400200030030000a9
:020000040000fa
:0400240030030000a5
:020000040000fa
:0400280030030000a1
:020000040000fa
:04002c00300300009d
:020000040000fa
:040030003003000099
:020000040000fa
:040034003003000095
:020000040000fa
:040038003003000091
:020000040000fa
:04003c00300300008d
:020000040000fa
:040040003003000089
:020000040000fa
:040044003003000085
:020000040000fa
:040048003003000081
:020000040000fa
:04004c00400200006e
:020000040000fa
:04005000a802000002
:020000040000fa
:040054003003000075
:020000040000fa
:040058003003000071
:020000040000fa
:04005c00300300006d
:020000040000fa
:040060003003000069
:020000040000fa
:040064003003000065
:020000040000fa
:040068003003000061
:020000040000fa
:04006c00300300005d
:020000040000fa
:040070003003000059
:020000040000fa
:040074003003000055
:020000040000fa
:040078003003000051
:020000040000fa
:04007c00300300004d
:020000040000fa
:040080003003000049
:020000040000fa
:040084003003000045
:020000040000fa
:040088003003000041
:020000040000fa
:04008c00300300003d
:020000040000fa
:040090003003000039
:020000040000fa
:040094003003000035
:020000040000fa
:040098003003000031
:020000040000fa
:04009c00300300002d
:020000040000fa
:0400a0003003000029
:020000040000fa
:0400a4003003000025
:020000040000fa
:0400a8003003000021
:020000040000fa
:0400ac00300300001d
:020000040000fa
:0400b0003003000019
:020000040000fa
:0400b4003003000015
:020000040000fa
:0400b8003003000011
:020000040000fa
:0400bc00300300000d
:020000040000fa
:0400c0003003000009
:020000040000fa
:0400c400080200002e
:020000040000fa
:0400c8003003000001
:020000040000fa
:0400cc0030030000fd
:020000040000fa
:0400d00030030000f9
:020000040000fa
:0400d40030030000f5
:020000040000fa
:0400d80030030000f1
:020000040000fa
:0401080030030000c0
:020000040000fa
:04010c0030030000bc
:020000040000fa
:0401100030030000b8
:020000040000fa
:0401140030030000b4
:020000040000fa
:0401180030030000b0
:020000040000fa
:04011c0030030000ac
:020000040000fa
:0401200030030000a8
:020000040000fa
:0401240030030000a4
:020000040000fa
:0401280030030000a0
:020000040000fa
:04012c00300300009c
:020000040000fa
:040130003003000098
:020000040000fa
:040134003003000094
:020000040000fa
:040138003003000090
:020000040000fa
:04013c00300300008c
:020000040000fa
:040140003003000088
:020000040000fa
:040144003003000084
:020000040000fa
:040148003003000080
:020000040000fa
:04014c00300300007c
:020000040000fa
:040150003003000078
:020000040000fa
:040154003003000074
:020000040000fa
:040158003003000070
:020000040000fa
:04015c00300300006c
:020000040000fa
:040160003003000068
:020000040000fa
:040164003003000064
:020000040000fa
:040168003003000060
:020000040000fa
:04016c00300300005c
:020000040000fa
:040170003003000058
:020000040000fa
:040174003003000054
:020000040000fa
:040178003003000050
:020000040000fa
:04017c00300300004c
:020000040000fa
:040180003003000048
:020000040000fa
:040184003003000044
:020000040000fa
:040188003003000040
:020000040000fa
:04018c00300300003c
:020000040000fa
:040190003003000038
:020000040000fa
:040194003003000034
:020000040000fa
:040198003003000030
:020000040000fa
:04019c00300300002c
:020000040000fa
:0401a0003003000028
:020000040000fa
:0401a4003003000024
:020000040000fa
:0401a8003003000020
:020000040000fa
:0401ac00300300001c
:020000040000fa
:0401b0003003000018
:020000040000fa
:0401b4003003000014
:020000040000fa
:0401b8003003000010
:020000040000fa
:0401bc00300300000c
:020000040000fa
:0401c0003003000008
:020000040000fa
:0401c4003003000004
:020000040000fa
:0401c8003003000000
:020000040000fa
:0401cc0030030000fc
:020000040000fa
:0401d00030030000f8
:020000040000fa
:0401d40030030000f4
:020000040000fa
:0401d80030030000f0
:020000040000fa
:100200002fa920000eff20000e0188000000000032
:10021000000020000000e000020032000001200089
:1002200020028800140007001f0107000000e00002
:1002300003003a0020aa220001002000020037003b
:100240000000200001002000810f7000010032003a
:1002500014000700000020000000e000020032004f
:100260000000020000000000de2d0200000000007f
:100270000040da000000fe004440a900e008200031
:100280000000e0000300320000002000a001880010
:100290004440a800000006008a1f78008b1f7800e9
:1002a0000000060091018800800478000000eb0047
:1002b0001a003700e284440032a0b4009905ba0065
:1002c000e284440032a0b4009906ba00e2844400fb
:1002d00032a0b4000006eb00476fde00fd07b2005d
:1002e000636ce10003003a00ebff07000000eb0045
:1002f0000a003700606ce10004003a00005deb008a
:100300008b05e900fdff3e00040037006168e10055
:10031000010032000086eb000b00070019c7ba008d
:100320001905ba000e04e00003003a000a00e000dc
:10033000e0ff3a0000000600fe07b2009e018800c0
:100340008a047800f5ff3700395dba008b05e900b3
:100350000c003200295dba008b05e900080032006c
:100360000c00e00003003a00e284440032a0b40034
:10037000f5ff370019ddba008b05e900faff3a00f6
:100380008904e800e184440032a0b40000000600c3
:10039000000000000000000000000000000000005d
:1003a000000000000000000000000000000000004d
:1003b000000000000000000000000000000000003d
:1003c000000000000000000000000000000000002d
:1003d000000000000000000000000000000000001d
:1003e000000000000000000000000000000000000d
:1003f00000000000000000000000000000000000fd
:1004000000000000000000000000000000000000ec
:10041000809fbe003400f80000002000a00188008a
:100420000000fa00e153800090538000808f50005c
:100430000a003a0010002000d053880031098000e3
:10044000908b840000805000c0538800908b840003
:10045000300988007c2aef00010037007a2aef007b
:10046000e05380000000e800e053880088e0a90025
:100470000080fa003400f9004f00be000040060082
:10048000809fbe00821f78003400f800000020002a
:10049000a00188000200fa0090108000004f780050
:1004a000114a8000f0032000808f500010003e00b1
:1004b000214a800080942000008040001e4878007f
:1004c000104a80000000e800104a8800214a80009d
:1004d000f0032000808f500003003200204a80008b
:1004e0000000e800010037000000eb00204a88000f
:1004f00070108000610060000000e000e6ff3a003c
:10050000b01680006100600000f0a7000000ea0063
:100510000000e9004f00de00004078000080fb0092
:1005200061006000b2168000e1ff2f0081006100d1
:1005300001007000b01688008520a9000080fa0034
:100540003400f9004f0178004f00be000040060063
:10055000809fbe00821f78003400f8000000200059
:10056000a00188000000fa0012003700614c8000f2
:10057000e098200000804000104078000000fb0060
:1005800080108800614c8000f0032000808f5000b4
:1005900003003200604c80000000e80001003700da
:1005a0000000eb00604c8800404c80000000e90037
:1005b000404c8800404c80000000e0000500320004
:1005c0007110800000202000008060000000e0002a
:1005d000e6ff3200b01680006200600000f0a70065
:1005e0000000ea000000e9004f00de000040780053
:1005f0000080fb006100600000004000b216800037
:10060000d1ff2f008100610001007000b01688004a
:10061000404c800000f0a7000000ea000000ea0063
:100620004f00de00004078000080fb0061006000a9
:100630004a00dd0062048000f1bf2f0081006100ec
:1006400001007000600488008540a9000080fa0065
:100650003400f9004f0178004f00be000040060052
:100660000040da000000fe006900e10004003500ef
:100670006d00e100030034000002b100010032000f
:1006800000000500100005000c02e20004003d001f
:100690000f42ab00020032000f02ab00feff32003f
:1006a0000040da00feff3700000005003200f800cd
:1006b000910188000008bb00410424006210e100a1
:1006c00004003200000220000010e1000a003a009d
:1006d00051042400013b88000500fc005105200066
:1006e000313b8800a10a2000313b880061e7a80067
:1006f00000000000000000003200f90000000600c9
:100700003200f80060042400003b8800f2ff37004c
:100710003200f8009101880041002400013b88006c
:100720000208bb00ecff37003200f800910188009e
:1007300051002400013b8800030120003218bb0057
:100740008301e900fdff3a00e3ff370014002000b9
:1007500080023700f4ff2f007e0237000001be0048
:10076000240007000470a70003f0a1006509b10090
:10077000160032000d0035006828e1000600350043
:10078000f0ff2f00f1ff27000300e00013003b0003
:1007900001002800000005000000400081804800a2
:1007a0008502e900fcff3a0008003700f88f42009c
:1007b00002003c008000eb00000005008100d10039
:1007c0000080d3008502e800fcff3a000300e0004f
:1007d00002003b0060001000e080180000000600ee
:1007e0004f89de0082017800750237000400200086
:1007f00058023700c70ade00f107b200f50fb20059
:1008000008003200e1cf4200020032000170a00077
:1008100024000500810f700001003200040805006b
:1008200044000500810f700002003a00140005002a
:100830008502e9000000400081c04800fcff3b0049
:100840000170a0002400050007f82700078361005d
:100850000638e10004003a00f707200087836100b2
:100860008703710001003a0003f0a200889fbe00d8
:100870008a9fbe008c9fbe00470ade000480a10054
:10088000c71ade000580a100070028000785600068
:1008900087856100f70f20000720e1009e003200ed
:1008a0000728e1009c003200010678000400e00007
:1008b000b4003200f7072000878060000170a000bc
:1008c0000500e000c0003200f707200087816100ca
:1008d0000370a000050652000f003a000b50e10023
:1008e0000b0032000308e10002003a000200e100c0
:1008f0007e0032000204500083845800040031005e
:100900000001fd008101fd008402fd008a05fd005b
:100910006044b800210037000520e10005003d00db
:100920000001fd008101fd008402fd008a05fd003b
:10093000050652007a60e100050035000170a10053
:100940004722dd00848070008a80700063003700d9
:100950006044b800ef02660007ff2f00070666003c
:100960000500e00006003400f08312008714dd006b
:100970000511de00071bdd00060171008519de0090
:100980007060e100050035000904780082047800f9
:10099000030178008001eb00700656000b50e10067
:1009a00003003a0002004000838048000400370042
:1009b00060041400e0841c0002005800838058008a
:1009c0000188a300060032008100d1000080d3001e
:1009d0008984d3000884d3000402e800270037008c
:1009e0000178a30025003a000100e0000300320076
:1009f0008186cf00698656000a0037008c002000ef
:100a00000000e00004003a00090078008804780043
:100a10000004eb00700252008086cf000d064600f5
:100a20000c06e9007060e1000600350080007800e7
:100a300009007800880478000004eb007006560076
:100a4000700252000c00e0000c0034008c08dd0045
:100a5000f00316000703de00868070000c00dd0046
:100a6000074bde00060070008c4cdd000743de0003
:100a7000868474000c44dd000c0252006120e10009
:100a800020003500610160000700280087816400b4
:100a9000f7ff270087836400070374000300e0006a
:100aa0000600320082037300040032000000e800f8
:100ab000e08048000188a3000e003a00f70f2000f4
:100ac0000720e1004a003d000170a1004722dd003f
:100ad000810072008a8070000000be004f06be00d8
:100ae0004f05be004f04be00000006006000b800c5
:100af000faff37008100d1000080d3000402e80033
:100b0000eeff3700040178008901740067010700d7
:100b10008a807000f1ff3700160207000702780094
:100b20000001fd008101fd0012020700870278002c
:100b3000850372000778a300040032000001fd0065
:100b40008101fd0050010700e4ff370085036200ca
:100b50000768a300080032000b50e10003003200d8
:100b6000f0ff2f00f1ff2700dcff37000001fd0040
:100b70008101fd00d9ff37000468a300d7ff3200d0
:100b8000faff3700f8ff2700888360000b003a0067
:100b90000000e00009003a008303640082837300d0
:100ba000020032000200be00ccff37000b50e10013
:100bb000ceff3a000200be00c8ff3700140020003c
:100bc000810064003eff3700f8ff27008883610042
:100bd00004003a000200e00002003a008c007800b5
:100be000beff3700150020008301640039ff370085
:100bf00001f827000000200081007500b7ff3700d2
:100c0000038368000700280007036300470ade002b
:100c10000480a100c71ade000580a100f70f2000a4
:100c20000720e100420032000728e10040003200c6
:100c3000889fbe008a9fbe008c1f7800f107b2001b
:100c4000f307b2000400e000640032000170a0006d
:100c50000500e000680032000370a0008505420036
:100c6000eb07b1000204b8000302b800848444001a
:100c700060854a00020ab800848444000a854a005c
:100c8000030ab80004054500040033000804d0003e
:100c90008984d2000a85d2008b05e9006158e10001
:100ca0003d0035000210200009016100030820000a
:100cb00089816100f707200087836400088673003c
:100cc000c84cde00c853dd00878474004855de0040
:100cd0000300e000060032008203760004003200c8
:100ce0008904e80060054d000a88a3000c003a0062
:100cf000f70f20000758e10044003d000a70a100f2
:100d0000c75ddd000a8575008a0073000900780060
:100d10004f0678004f05be004f04be0000000600dd
:100d20000a05d1008984d3008b05e800f0ff370065
:100d3000881f7800060478008e01070007027800fb
:100d40000001fd008101fd008a0107008702780093
:100d5000850372000778a300050032000001fd0042
:100d60008101fd00c80007004f0478000000060064
:100d7000850372000748a30003003200f0ff2f0034
:100d8000f1ff2700f8ff37000000200001f82700de
:100d900088807000f4ff3700880178004848dd0043
:100da000808171004848de00c850dd0001007000fd
:100db000c850de00060478000b017800bb00070075
:100dc00088807000d2ff37000500e0000500320087
:100dd000170020007d0007009dff37008103700091
:100de000f9ff3a00860078004f0678004f05be00f4
:100df0004f04be000000050083037100f9ff3200bc
:100e0000270020007100070094ff370001f8270039
:100e100086807000f4ff3700020250008382580081
:100e200061003900030371006200320005037200a3
:100e3000590032000300e0005500330017003a006b
:100e40000100e0004b0032000208e1000600310022
:100e5000110009004288d800010178008001eb00f0
:100e60008000eb00000006006110e1005500320038
:100e70000002be00110009008280d80080027800c4
:100e800004007800110009004288d80001017800b0
:100e90008001eb008500780000000600889fbe00fe
:100ea0008a9fbe008c9fbe000386cf000c06e9001f
:100eb0008c1f78008c19dd00f00216000512de0090
:100ec000848171000c11dd000003be008004eb0082
:100ed000053cde008c3bdd000532de0084837300c0
:100ee0000c33dd000700780088007800110009004d
:100ef0004388d8000202b8000306b8008c82420082
:100f000060854e008005eb000402530085825b0083
:100f10000a055c008b855c000b0033008000eb0051
:100f20004f0678000c21de00700516000a2ddd004a
:100f30000a0171008c29de004f06be004f05be007d
:100f40004f04be00000006000202420083824a00f5
:100f500060054d00e0854d000000e9000b00e00059
:100f6000eeff3d000202420083824a000000e900d9
:100f7000eaff37000000e000120032001100090013
:100f80000280d800010178008000eb00000006001c
:100f90000401be00010037006011b80010002000fd
:100fa0008000eb00000006000001be006000b800f9
:100fb000000006000001be00f0ff2f00f1ff2f002f
:100fc000000006006011b80000000600889fbe0007
:100fd0000004eb006138e10016003a000100e00077
:100fe00008003a00c800de004800dd00880020004c
:100ff0000100e00003003a00c800de004800dd0008
:10100000680444008184cf00e98454000600340061
:101010008908dd00f08314008703de0087807000fc
:101020000900dd0009044400610214004f04be0001
:10103000000006000300e00008003a00c811de00ce
:101040004811dd00880020000300e00003003a00a2
:10105000c811de004811dd00680444008384cf001d
:10106000e9845400060034008919dd00f08314007f
:101070008713de00878171000911dd000904440037
:10108000e1021400e9ff37000478a30004003200f5
:101090000578a300030032000168a30001003a00b4
:1010a0000200be000160a000000006000100e00098
:1010b00026003200610111007810e10023003c009d
:1010c0006022b8007010e100040035008002780052
:1010d000010078008000eb00700151000200e00088
:1010e0000900340070031100062add00822ade00a8
:1010f0008603dd00878272000200de00860bdd00c1
:10110000070070008208de0084817100f4ff270070
:1011100004826200848171000400280084826200dd
:101120006102600005f0a600000006000482710064
:10113000070032000000e800e080480000000600e0
:101140000002be006000b800efff37006000b8008a
:1011500000000600889fbe008a9fbe00841f7800a2
:101160007c0007004f00780011003300f0ff2f00d3
:10117000838f6c0006003b00040565000a00a70091
:101180000800370009f0a600100020000800370012
:10119000820f5400838f5c00030039001000200090
:1011a00001003e000000200009f0a7000000ea0056
:1011b0004f05be004f04be000000e0000000060026
:1011c000881f7800030478000300e00007003d005a
:1011d00060001000e080180060011900e081190033
:1011e00002003b0001f02d0003003700040007005f
:1011f00008f0a70001f0a0004f04780000000600ee
:10120000889fbe008a9fbe000082700004027100a9
:1012100004827100260032000004be000200be00fd
:101220006011b8006b092000950220000182cf00f8
:101230000a0039000541b1000082cf0007003900e3
:101240000541b1000982cf00040039000541b10019
:101250000882cf00010039000541b100054252006b
:10126000120032000a003b008281710061016400bb
:101270008100d1000080d3008984d3000884d3008a
:101280008b05e8000442e800f7ff3a00070037004a
:101290000804440089844c00000048008180480014
:1012a0008b05e9000442e900f9ff3a00030007005a
:1012b0004f05be004f04be00000006008100200064
:1012c000618055000b003d000b00200061fe2f00e7
:1012d0000100e1001d0034008281710061016400a1
:1012e0008904d1000884d3000000e800faff3a0026
:1012f00071002000610064000300700002006000c3
:101300000900320061044400e0844c000988a50013
:10131000050032008b05e8006808e10002003a0091
:101320008904d1000884d300f20f20000258e100a4
:1013300005003d00c75ddd00f907b200898075003a
:1013400008007800000006000bf827008b007800ea
:10135000000005000004be0026fd07000003be00db
:101360000405be000200be0022fd0700844f750088
:10137000000006002700200001f0a7001700200051
:10138000470bde00f60fb200040032000643e8000f
:101390000a0032004702b300000006000103780093
:1013a000f607b2000603700002003a000703b3001c
:1013b000000006008702b300000006000103780069
:1013c000f607b20006037000020032000770a000aa
:1013d000000006000760a00000000600889fbe0015
:1013e0008a9fbe008c9fbe008e1f78000106780089
:1013f0000c00e00001003200000e7800800478004c
:10140000090578008a047800b905fb000b00780014
:1014100095fc07000000e000f9ff3a00d002200030
:10142000808f550003003a000905780018c0b3000a
:10143000050037000044eb00b0022000808f55000b
:1014400001003a00090578006000b8008004eb0054
:101450000007eb00010037000a05e8000a017800e8
:101460000848a30005003a00e3c2b3009acf110078
:1014700002003a000844a000f7ff37009a457800c0
:101480008b01fb000303b100e98f510016003e0001
:101490000814a0000801fb00e98f54000e00320080
:1014a0000248a300010032000e07e9008904e800a9
:1014b000a2002000030020005c01070002cdb30061
:1014c00002c145000281fb008001eb0000004100e9
:1014d00081804900e0ff37000248a300deff3a00a8
:1014e0000e07e800dcff370053c6b30083cf55007a
:1014f000040032008004eb0053c4b30083cf5500d6
:101500002d003a005a417800d3c2b300834f5100f6
:1015100002003a000834a00003003700b3c2b30051
:10152000834f510001003a000a05e8000a017800e3
:10153000020578003a42780003c3b300834f52009b
:10154000faff32008402fb000503b1008004eb00c7
:10155000e98f520015003e00834452008984fb004d
:101560000a017800124278008402fb000503b100f2
:10157000e98f52000d003e006a4bb90083445200cf
:101580008984fb0086844400524278008402fb0078
:101590000503b100e98f520004003e006a4bb90018
:1015a000834452008984fb00868444000838a300e9
:1015b000010032008904ea000c00e0000300320060
:1015c0000818a30001003200020e780084fc070016
:1015d0000005be000006be006011b8005bfc0700fd
:1015e000000178006000b8000200e00058003200fe
:1015f0008e84440032f82f00828f540003003d0097
:1016000022022000625488005100370000082000a8
:10161000808f5400070034002002200060548800ae
:101620000808a300450032000000200001f82f0048
:10163000470037000900e0001b003d008904ea0074
:1016400006003700922f2000530125000a00be003b
:10165000fc0007000005be00ea845400e98f540036
:10166000f8ff3c00060037000200200003122400af
:101670000a00be00f30007000005be008904e9006f
:101680000900e000f8ff3a000a06be000200200050
:10169000030820000a00be002cfc07000000e00048
:1016a00021003d001b0037000900e00007003a0060
:1016b0001d003700922f2000530125000a00be00b4
:1016c0004ffd07000005be00ea845400e9cf540036
:1016d000f8ff3e000600370002002000031224003d
:1016e0000a00be0046fd07000005be008904e900af
:1016f0000900e000f8ff3a000a06be00f2ff2f00e2
:10170000f3f727000a00be0012fc07000000e0000b
:10171000050034000808a3000b0032000000200080
:10172000010828000a0037000808a3000100320061
:101730000df0a2000c00be000500370000002000e4
:1017400001f82700020037000000200001082000f7
:101750004f0778004f06be004f05be004f04be0085
:10176000000006001dff37008000eb001bff370064
:1017700080007800010078003041780003c2b30097
:10178000834f5100faff3200e94f5100f8ff320059
:10179000edc14100834f510003003a008000780002
:1017a00013c0b300050037008041eb00b4c2b300a2
:1017b000844f510001003a00800078000000eb00e7
:1017c000020037006a02b900040041003101fb0049
:1017d0000203b100e90f5100faff36000304e000f4
:1017e000010032000000ea0000000600000478005a
:1017f0002a00070008007800a3fb07000003780018
:101800008102780085017800010037000403780028
:10181000110009008281d800800178000602e800ea
:101820000300e000f9ff3a00034a780011000900c4
:101830008282d8000002780081417800840278001a
:10184000e9cf510001003400e7c1410001c3b300fa
:1018500001d341000400e000f4ff3a0006007800e4
:1018600000000600881f7800000478000100e000f6
:1018700005003d0008007800d3c2b300035878008b
:101880008100ea000100370008007800dbff070054
:10189000080078004f0478000000060000000600f1
:1018a000b041780031c1510002003a000304e00069
:1018b000fbff3a000200fb00000006000001780078
:1018c000b1417800035978000304e000fcff3a00be
:1018d00000000600800078003104e000feff3a00be
:1018e0000080ea000080400000000600889fbe00e3
:1018f0000004be000800e00003003a0088548000a5
:101900000800e000130032000800be0027000700b6
:10191000000444001804e00004003a000000eb005a
:10192000805488000004eb000a0037000800be0065
:101930000b00070000004400805488001004e00001
:10194000020032000058eb00010037000000eb00fd
:1019500080548800080078004f04be000000060094
:10196000889fbe008a1f78000105780080047800f7
:101970000004eb00010037000804e800b9407800db
:101980000104e000050032008100fb000a0078003d
:10199000190007000000e000f7ff3200080078009f
:1019a0004f0578004f04be0000000600889fbe006f
:1019b0008a1f780001057800800478000004eb009d
:1019c000010037000804e800b94078000104e00095
:1019d000050032008100fb000a00780006000700c5
:1019e0000000e000f7ff3a00080078004f0578009b
:1019f0004f04be00000006000001eb006103b800c8
:101a00006112b8008601420066427a00814f52009e
:101a1000040032000201e8000404e000f7ff3a008d
:101a20008001eb000300780000000600020ab90004
:101a3000001bb9000200b800810042008100430091
:101a400000000600889fbe008a9fbe008c9fbe00db
:101a50001b0020000202be00058668000600280068
:101a6000060666004709de00f20fb200820032006f
:101a70000243e80080003200c729de00f30fb20005
:101a80007d0032000343e8007b003200f107b20022
:101a90000170a000f507b2000570a000c708dd00c6
:101aa0004903de00868070004700dd00c72add00a4
:101ab0004923de00868272004722dd0003055100c3
:101ac00004035000858358000300310000004000eb
:101ad000818048000a05e9008c1f78008a9fbe00bb
:101ae00004005000858058000402420085824a00ac
:101af00000004000818048000005eb000004be00ab
:101b00006033b8000406be000d48e1005600310005
:101b1000110009004dccd8000c01b8000d02b8002e
:101b20008481410060824a008283530003045c0088
:101b300084845c0060055d000a00e00025003a0036
:101b4000800578000d40e1004900310088007800f0
:101b500007007800110009004d88d8000c01b8007a
:101b60000d02b8008481410060824a0060031100c8
:101b700083835b0004045c00e0845c000900e000f7
:101b800021003a004f01be000300e0002b003200ac
:101b9000e3016000070673008c81710001003200d0
:101ba000640070004200de004e5edd000c0070003c
:101bb000c258de0001e0a000b4000700cf017800a9
:101bc000818071004f06be004f05be004f04be006d
:101bd000000006008c8343000d044c00e0844c00a0
:101be00060054d000000e9000a00e000d4ff32006b
:101bf0008c8343000d044c00e0844c0060054d00d4
:101c00000000e900ceff37000c0343008d834b003a
:101c100060044c00e0844c000000e9000900e00092
:101c2000d8ff32000c0343008d834b0060044c004e
:101c3000e0844c000000e900d2ff37004200de00e3
:101c40004e5edd000c007000c258de0001e0a00016
:101c5000cf0178000300e000daff320060001000de
:101c6000e0801800d7ff3700f0ff2f00aaff3700f1
:101c7000f0ff2f00b9ff37000404be00bdfd0700d0
:101c8000870678000004fd008104fd00b9fd07000f
:101c9000078366000678a300030032000960a700ee
:101ca0000800be002c0037000d78a30002003200af
:101cb0000800be00280037000778a30026003a007d
:101cc00001f0a10009f0a1000668a30003003200a2
:101cd000f1ff2700f0ff2f00baff37000d68a300c7
:101ce000030032000800be008c807000b5ff370092
:101cf0000768a30007003a000648a300030032006b
:101d0000f1ff2700f0ff2f00aeff37000d48a300c2
:101d1000030032006000b8008c807000a9ff37001b
:101d20000748a3000400320001f82700000020004b
:101d30008c807000a3ff3700210007000004fd0025
:101d40008104fd00020578001d0007000802be00a6
:101d50008a01780059ff37000160a00012022000bc
:101d60006254880097ff37000100e0001200320043
:101d70000500e00010003200889fbe008a9fbe0070
:101d80008c9fbe000006eb0001f8a30003003200a8
:101d900060001000e08018000cf0a00005f8a3001f
:101da0000300320060021200e0821a000cf0a20070
:101db0008005eb0041ff37006000b800020005001d
:101dc0004f0ade004709de00f107b200f20fb20051
:101dd0000b003200f207b1000170a000c708dd005f
:101de000c901de00838070004700dd000400a6000a
:101df0000000060060001000e080180000000600ef
:101e0000810f700001003a00000006008182cf00bf
:101e10000500e00010003e008082cf00ee8242000c
:101e20007028e1000400390007003e0080007800bf
:101e30000000eb000e003700708312008600de0009
:101e40000500dd000a003700708352008600dd00c7
:101e50000000eb0006003700e28252008508dd003a
:101e6000708312000603de00868070000500dd002e
:101e70007507b0000501ea000400a6000000060096
:101e800060001000e0801800000006008101700072
:101e9000270032008002eb0001f8a30003003200ab
:101ea00060001000e080180015002000f4072000fa
:101eb0000202420020003400f70320008703600084
:101ec00006042000000363000208200000016100f6
:101ed0004700de00c909dd0000807100c708de0090
:101ee0000600e0000800320087037100060032009f
:101ef0001000b0000180b0000188a3000200320091
:101f0000c108de000402e800f107b200f30f200070
:101f10000320e10003003d004722dd008100720044
:101f20002900370001f827000000eb0026003700e9
:101f30006000b80000000600680212007f20e10087
:101f4000020034006000b8001f0037006011b800c4
:101f50007020e10004003500800178000100780065
:101f60008000eb00700252000400e0000900340021
:101f7000f00312000719dd008419de000703dd00fd
:101f8000868171000400de00070bdd000600700092
:101f90008408de00f7ff2700838363008703710056
:101fa0000600280003036300070032000700e0007a
:101fb00003003a00610160000281730002003200f8
:101fc0001000b0000180b0000500a600000006006f
:081fd00001f0a0000000060072
:020000040000fa
:101fd8002a000000556e00006b6e00006f7700004d
:101fe8006e0000004e6f0000744500007869000024
:101ff80073740000004e00006f74000053750000f9
:1020080072700000706f000072740000004e0000d3
:102018006f74000045780000637500007465000067
:10202800004e00006f7400004469000072650000f3
:10203800637400006f720000790000004e6f0000aa
:10204800744600006f7500006e6400004f75000054
:102058007400000046650000774900006e700000bb
:102068007574000073000000466900006c6500008c
:1020780054790000706500004e6f00006e65000026
:1020880000460000696c00004554000079700000ab
:102098006544000069720000656300006f74000009
:1020a8006f720000790000004e6f0000744100005c
:1020b800636300006573000073000000496e000050
:1020c80070750000744600007261000075640000bd
:1020d80000000000ec8f0000ee8f0000f68f00007b
:1020e800ff8f00000b900000159000002290000068
:1020f8002e90000038900000459000005890000095
:0421080062900000e1
:020000040000fa
:10210c0065780000697400000065000063680000d9
:10211c006f0000006c73000000700000776400001a
:10212c00007400007265000065000000636400002c
:10213c000073000079730000746500006d000000ee
:10214c0073650000740000006765000074000000f7
:10215c006c6f00006f70000000640000656c000084
:10216c00617900000000000086900000fa16000063
:10217c008b900000081700009090000022170000c0
:10218c0093900000c4170000979000004a180000bc
:10219c009c900000601800009f900000a0180000a8
:1021ac00a6900000e2180000aa9000009e19000002
:1021bc00ae900000521a0000b3900000d61a000036
:020000040000fa
:1021cc00626900006e000000657800006974000010
:1021dc00006100006c6c0000005d00000d00000050
:1021ec002a0d0000006d0000656d00006f7200008c
:1021fc007900000075730000656400003a0000006f
:10220c0066720000656500003a0000006d65000014
:10221c006d6f0000727900005b4b0000425d0000a6
:10222c00002d00006e730000002d0000757300007f
:10223c00002d00006d730000000000003a0000004b
:10224c00200d00000a000000726f00006f74000087
:10225c00002e0000002e00002e0000006f70000009
:10226c00656e000020620000757300000000000025
:10227c00686500006c6c00006f200000776f000038
:10228c00726c000064200000696e00002065000084
:10229c0065700000726f00006d2e00000a000000d7
:1022ac00656e000076000000746500006d70000023
:1022bc00000000006d7400007200000064740000e7
:1022cc000000000073620000696e00000000000056
:0c22dc00a086000001000000ff7f000051
:020000040000fa
:1022e8007273000074000000736500006c00000049
:1022f800749100009c2c000078910000aa2c00002a
:020000040000fa
:1023080045720000726f0000723a00000000000081
:020000040000fa
:102318000000fa00805180000080fa0000000600ea
:102328000000fa00705180000080fa0000000600ea
:102338000200fa00000f78009e00780071518800b2
:102348000080fa00000006000000fa002d0b0700cc
:10235800a01229001d0107008051880080518000cb
:10236800705188000080fa00000006000400fa009e
:10237800000f7800110798001e0078000000e000a8
:1023880002003a000080eb000d0037001e009000ac
:102398000000e00002003a00e0ff2f0008003700cc
:1023a8001e007800a00090001e00900021009800f8
:1023b8001e0078009e009000210098000000eb00ad
:1023c8000080fa00000006000200fa00000f780002
:1023d8001e0078000000e000040032001e007800b3
:1023e800300090006f006000010037000000eb0033
:1023f8000080fa00000006000400fa00000f7800d0
:10240800110798001e0078000000e0000900320063
:102418001e007800b000900000ff2f008080600050
:102428001e0090006f006000810070001e007800a0
:10243800310098000080fa00000006000200fa004f
:10244800000f78001e0078000000e0000500320050
:102458001e007800b0009000000f2000008060008f
:10246800010037000000eb000080fa0000000600c1
:102478000400fa00000f7800110798001e00780089
:102488000000e0000a0032001e007800b000900052
:10249800f0f02f00808060001e019000000f2000e7
:1024a80000006100810070001e0078003100980073
:1024b8000080fa00000006002c00fa00501798006f
:1024c800f00220004007980010c0b3002047980091
:1024d8005e1090000000e00002003a000000eb00ef
:1024e800740037006a004700de109000f1fc070016
:1024f8006a004700200798002e009000904078005e
:10250800f0c2b30080cf50000b003a008151800028
:10251800010f78002e0090000000e80020079800c6
:102528002e009000104078000004e00004003a00fb
:10253800805180005f00370071518000010f7800e2
:102548001e007800c0009000010f78006800470066
:10255800800078002e009000e2fc07003007980009
:102568005000370068004700800078000000eb004a
:10257800dcfc0700300798003e0090000000e000f7
:1025880003003a001e0078004a00370000000000ef
:10259800be009000f0122900bffc07000000e00018
:1025a800f0ff3200150037002e4090000004e000d4
:1025b800050032001e00780090009000010f78009e
:1025c8000040eb00204798001e0078009000900023
:1025d800010f780068004700800078000000eb00d9
:1025e800c0fc0700300798003e0090000000e000a3
:1025f80002003a001e0078002e003700be0090004e
:1026080010132900a4fc07000000e000e6ff3200d8
:102618001e007800100078000000e0002100320061
:102628001e00780010007800800078003e009000be
:1026380099fc07000000e00012003a00680047001b
:10264800800078000000eb00a6fc07003007980027
:102658003e0090000000e00002003a001e007800f2
:10266800140037001e007800c0009000010f7800a9
:102678001e0078000000e0000a003a000000eb00ad
:102688000c0037001e007800a0009000010f7800b1
:102698001e0078000000e00002003a000000eb0095
:1026a800040037003e0090000000e000b7ff3a0049
:1026b8001e0078000080fa00000006000600fa00fc
:1026c800200798002e0090000000e00002003a0069
:1026d8000000eb00260037000000eb00000f780038
:1026e8001f0037001e0078008000400020a3200053
:1026f80000804000100078000000e0001700320061
:102708001e0078008000400020a3200000804000c8
:1027180010007800c0009000110798000c003700e6
:102728001e00900010007800800078002e009000b5
:1027380059fc07000000e00002003a001e0090006b
:102748000b0037001e009000a000900011079800b1
:102758001e0090000000e000f1ff3a001e0fe800a4
:102768001e007800e70f5000deff34000000eb0089
:102778000080fa00000006000400fa001007980024
:102788001e0090004cff0700000f78001e00780024
:102798000000e000020032001e0078000900370047
:1027a8001e009000c5ff0700000f78001e0078008b
:1027b8000000e000020032001e007800010037002f
:1027c8000000eb000080fa00000006000400fa0098
:1027d800100798001e009000590a0700000f7800a3
:1027e8001e0090000000e00002003a000000eb002c
:1027f800070037001e007800010120003100980012
:102808001e0078008000eb00410098001e00780050
:102818000080fa00000006000400fa00000f7800ab
:10282800110798001e0078000000e00002003a003e
:102838000080eb00180037001e0090000000e00048
:1028480002003a00e0ff2f00130037001e00780056
:10285800b0009000000f200000806000f00f5000d2
:1028680002003200d0ff2f000b0037001e0090003e
:102878009e007800110098001e007800c0009000ab
:102888001e009000210098001e0078009e00900015
:10289800410098000000eb000080fa0000000600ec
:1028a8000400fa00100798001e0090000000e000e5
:1028b80002003a000080eb00170037000000eb0030
:1028c800000f7800100037001e00780080004000dc
:1028d80020a3200000804000100078000000e000e5
:1028e80008003a001e0078008000400020a3200065
:1028f800008040009e009000010878000000eb0076
:10290800050037001e0fe8001e007800e70f500092
:10291800edff34000080eb000080fa0000000600a4
:102928000200fa000000eb00000f780007003700f3
:102938001e0078008000400020a320000080400096
:102948008000eb00010878001e0fe8001e007800e8
:10295800e70f5000f6ff34000080fa000000060080
:102968005c00fa00502f98000000eb00000f780080
:102978000000eb00100798000000eb00200798000b
:102988000000eb0030079800411229005e289000f3
:10299800d4fb0700400798001e00780000004000a4
:1029a80000004700a004b000ce00900001087800a5
:1029b8000b0037001e0fe800411229000000eb0051
:1029c800c8fb0700400798001e0078000000400080
:1029d80000004700a004b000ce0090000108780075
:1029e8004e0090000000e0002f0032002e00900002
:1029f800e70f5000efff34002b0037000000eb001a
:102a0800200798001e0090000000400000004700ca
:102a18005020900061122900b2fb0700400798007f
:102a28002e00900000004000000047006a004000af
:102a3800ce009000010878000d0037002e009000ad
:102a48000000e80020079800611229000000eb0050
:102a5800a4fb0700400798002e00900000004000eb
:102a6800000047006a004000ce009000010878008e
:102a78004e0090000000e000030032002e0090009d
:102a8800ff0f5000edff34006a0047008000780017
:102a98002e0090000a000700300798001e009000e2
:102aa8000000e800100798001e0090009e0f5000dc
:102ab800d2ff35003e0090000080fa0000000600ba
:102ac8000600fa0010079800210798002e009000d1
:102ad8001000780028ff0700000f78001e0078001b
:102ae8000000e00003003a0020002000220c07004c
:102af800180037001e007800b00090000002200087
:102b08008080600000022000808f50000f003a0093
:102b18001e007800300090006100600000407800de
:102b28000004e000060032001e007800400190001a
:102b3800ae0090001e009000020001000500370062
:102b4800300020000c0c0700020037004000200075
:102b5800090c07000080fa00000006000600fa00d1
:102b680010079800210798001e00900074090700bc
:102b7800000f78001e0078000000e00002003a0014
:102b88000000eb00070037001e007800110220004b
:102b9800310098001e007800ae00900041009800b7
:102ba8001e0078000080fa00000006000800fa0005
:102bb8001007980021079800320798001e0090001f
:102bc8005f090700000f78001e0078000000e00091
:102bd80002003a000000eb000e0037002e009000c3
:102be8000000e00002003a000000eb000900370096
:102bf800be00900000032000810070001e007800d5
:102c0800310098001e007800ae0090004100980046
:102c18001e0078000080fa00000006000800fa0094
:102c28001007980021079800320798001e009000ae
:102c380043090700000f78001e0078000000e0003c
:102c480002003a000000eb000e0037002e00900052
:102c58000000e00002003a000000eb000900370025
:102c68003e009000800078000160a0001e007800ff
:102c7800310098001e007800ae00900041009800d6
:102c88001e0078000080fa00000006000200fa002a
:102c9800000f78009e007800115288000080fa002a
:102ca800000006000200fa00000f78009e0078007d
:102cb800215288000080fa00000006000200fa0095
:102cc800000f78009e007800315288000080fa00da
:102cd800000006000000fa000a06070010528000f3
:102ce8000000e000020032001052800000000100e5
:102cf8000080fa00000006000000fa000106070044
:102d0800205280000000e0000200320020528000c3
:102d1800000001000080fa00000006000000fa0030
:102d2800f1050700401329002b060700fb050700e3
:102d3800305280000000e000020032003052800073
:102d4800000001000080fa00000006000800fa00f8
:102d58001007980021079800320798000000eb0040
:102d6800000f78000f0037001e0078004200dd00d9
:102d7800ae00900000804000900090001e00780097
:102d88004200dd002e019000000041001000780094
:102d980072ff0700800078001e0090009efe07006a
:102da8001e0fe8009e0078003e009000808f5000c3
:102db800edff39001e0090000080fa0000000600b8
:102dc8000200fa00600e290080fe0700000f78005c
:102dd800b2002000a10b29001e007800dbff0700cd
:102de8001e0078000080fa00000006000400fa00c7
:102df800000f780011079800a00e2900f6050700bb
:102e08008000200077fa07000400fa00000f78001d
:102e1800110798001e007800e10f500004003400ec
:102e28001e0090000080e80010007800ea05070006
:102e38000000eb000080fa00000006002800fa00fd
:102e4800201798003117980035fd070010079800e3
:102e58002e109000e10f500012003a001e00900062
:102e6800c0009000010f7800080037001e007800ad
:102e78001000780058050700c0c2b3003c050700e1
:102e88001e007800a0009000010f78001e00780056
:102e98000000e000f5ff3a00d0c0b3003405070099
:102ea800220037002e109000e20f50001f003a0059
:102eb8003e1090000080e80010007800f10e290014
:102ec80075fa07000000e00018003a001e009000a4
:102ed800c0009000010f7800110037001e00780034
:102ee800100078003c050700b0c5b30020050700b6
:102ef8001e00780030009000ef006000640047007a
:102f08000201200055fa070033050700300f290099
:102f1800310507001e007800a0009000010f78001e
:102f28001e0078000000e000ecff3a0045050700ad
:102f38000000eb000080fa00000006000200fa0022
:102f4800000f7800f2fc07009e0f500009003200c5
:102f58001e00780010009000f8ff0700f0c2b300d0
:102f6800030507001e007800100078001a05070006
:102f780001003700000000000080fa000000060091
:102f88000600fa001007980021079800e4fc0700e3
:102f9800000f7800defc07009e0f5000030032008f
:102fa8001e007800e5ff070002003700f0c2b300fa
:102fb800ef040700d0c0b3005f0507000000eb0076
:102fc8000080fa00000006000800fa0020079800b8
:102fd800310798003e0090000000e0002800320011
:102fe8000000eb00000f780003003700c0c7b300f3
:102ff800df0407001e0fe8002e0090009e007800f6
:10300800808f5000f9ff35003e009000b00090001e
:10301800000f200000806000f00f500014003a00fc
:103028003e00900010007800eb040700600f2900b4
:10303800e90407003e009000c000900011079800c6
:10304800070037002e0090000000e8009e00900066
:10305800ddff07001e009000a000900011079800f7
:103068001e0090000000e000f6ff3a00050037005f
:103078003e00900010007800e904070001003700c6
:10308800000000000080fa00000006000400fa00ba
:10309800000f780011079800a1fc07008000780055
:1030a8000000eb00c8ff0700e60407000000eb0083
:1030b8000080fa00000006000600fa0010079800d9
:1030c800210798001e009000e10f500017003400ff
:1030d8002e0090000080e80010007800a6fd070090
:1030e800000f78001e0078000000e0000c0032009d
:1030f8001e007800b0009000000f200000806000e3
:10310800f00f500003003a001e00780088fc07000a
:103118000600370050002000970a07000400370017
:1031280060002000940a0700010037000000eb004f
:103138000080fa00000006002400fa00001798003a
:1031480011179800900f2900b504070000102900f6
:10315800a1040700f0070700a20020008000780003
:103168000e007800bdf90700ad04070060102900c3
:1031780099040700d1070700a2002000800078000a
:103188000e007800b5f90700a5040700c010290053
:1031980091040700e6070700a200200080007800dd
:1031a8000e007800adf907009d040700a50407008c
:1031b8000000eb000080fa00000006000800fa009a
:1031c800881f780020079800310798001000200019
:1031d800000f78002e009000e20f50004b003c00da
:1031e80070002000640a07004f0037001e007800b6
:1031f80000004000be0090000080400010007800f1
:10320800adfc0700100798001e0090000000e000c9
:103218003b0032001e009000300090006200600009
:103228000000e000330032001e009000b000900063
:10323800000f200000806000f00f50000c003200ea
:10324800f00f500003003e000000e0000b003200c9
:103258002300370001032000810f50000a003200cc
:1032680001042000810f5000120032001c003700ba
:1032780090002000400a07002b0037008000200043
:103288003d0a0700280037001e0090004004900007
:103298001e0078000000e80000004000be0090001a
:1032a80000804000100078002ff90700000c78001b
:1032b8000e0037001e009000400490001e007800a9
:1032c8000000e80000004000be00900000804000c0
:1032d8001000780022f90700008cbe0003003700b8
:1032e80030002000240a07000f0037001e8fe80076
:1032f80007003700a00020001f0a07000a00370057
:10330800200020001c0a070007003700000000000a
:103318009e00e8002e009000808f5000b3ff35001b
:10332800480407000000eb004f0478000080fa0012
:10333800000006002a00fa0030179800411798008c
:1033480010002000000f78000040eb002047980094
:10335800480037002e4090000004e00002003200d0
:10336800c0c2b300740407001e00780000004000cb
:10337800ce10900000804000100078004efc07003e
:10338800200798002e0090000000e000390032006d
:103398002e00900030009000620060000000e00005
:1033a800310032002e009000b0009000000f200085
:1033b80000806000f00f50000c003200f00f500049
:1033c80003003e000000e0000b0032001f00370041
:1033d80001032000810f50000a0032000104200080
:1033e800810f50000f0032001800370090002000b5
:1033f800e10907002700370080002000de090700e8
:10340800240037002e0090004000900090007800c3
:1034180066004700a200200010f90700ee0307002d
:103428000d0037002e009000400090001000be00f4
:10343800c8f407008000780066004700a20020005a
:1034480006f90700e40307000300370030002000f6
:10345800c90907000f0037001e0fe80010c0b300ad
:103468002047980003003700a0002000c209070089
:10347800080037003e1090009e007800808f5000b2
:10348800b4ff3500ef030700d0c0b3002a040700db
:103498000000eb000080fa00000006000800fa00b7
:1034a80020079800310798002e009000e10f500087
:1034b80002003c000080eb00380037003e0090001e
:1034c8000080e80010007800a7f80700000f7800d7
:1034d8001e0078000000e0001d0034002e0090005f
:1034e8000080e900200798003e009000640040003a
:1034f800300798000a003700be0090002e009000a8
:103508006ffd0700100798001e0090000000e00003
:1035180002003d001e00900020003700c90307008c
:10352800040307000000e0001b003a0010c0b300cd
:103538009e0078000100e00001003c000040eb0024
:103548001e0fe9000004e000ebff3a00120037000c
:103558002e0090000000e900200798003e0090002f
:103568000080e8003007980008003700be0090008f
:103578002e00900052fd07000000e00002003d0010
:103588000080eb0005003700ae030700e9020700e2
:103598000000e000f5ff32000000eb000080fa00b8
:1035a800000006000800fa0020079800310798007c
:1035b800a0002000000f78002e009000e10f5000be
:1035c800520034003e0090000080e80010007800af
:1035d80065f80700100798001e0090000000e00042
:1035e800420032002e009000e20f50003b003400f1
:1035f8003e00900064004000100078009040780081
:10360800d0c2b30080cf50002c003a003e0090009a
:103618006400400010007800711129009ef807002e
:103628000000e00003003a001e009000e4080700d4
:10363800170037003e00900064004000100078003a
:10364800b111290094f807000000e00003003a00d7
:103658001e009000e30807000d0037003e009000b0
:103668006400400010007800f11129008af8070072
:103678000000e00003003a001e009000e808070080
:1036880003003700b00020003b0907002200370084
:103698002e009000e30f5000060034003e0090001a
:1036a800e60040002e0090006300500004fd070073
:1036b800190037000000eb00170037001e009000cb
:1036c800c80807003e009000e40040002e0090006b
:1036d8000080e900fafc07000f0037001e00900088
:1036e800c00807000000eb000b0037001e00780040
:1036f800bc0807003e0090008080e8002e00900083
:103708000000e900eefc0700030037001e00780007
:10371800b40807000000eb000080fa000000060073
:103728000600fa00889fbe00a8508000b9508000ab
:10373800eb060700cf80de000000540081805c00ab
:1037480025f40700e0508800f1508800a050800060
:10375800b1508000e00f5000e08f58001100320097
:10376800e0508000f1508000faf307000000780074
:1037780000f0a7000000ea00e10f50000900320045
:103788000451800015518000e0508000f150800005
:103798000001be000400be0032f40700005188009a
:1037a80011518800e4508000f5508000405180009d
:1037b800515180000001be000400be0020f4070043
:1037c8002051880031518800e4508000f550800075
:1037d800d0528000e15280000001be000400be000b
:1037e80005f507000004be00045180001551800053
:1037f800f0528000015380000001be000400be00aa
:10380800fdf407000001be000800be0015f4070023
:103818000004be0024518000355180001053800000
:10382800215380000001be000400be00f2f407002e
:103838000001be000800be000af407001007980047
:10384800210798000000eb00000f780018c0b300b3
:103858003233230033f72b001e009000ae00900097
:10386800baf307000000e00001003c000044eb0050
:103878000804e0002c00320018c0b30032332300e3
:1038880033f723001e009000ae009000adf3070050
:103898000000e000010035000044eb000804e000ef
:1038a8002100320018c0b3006011b8001e0090005b
:1038b800ae009000a3f307000000e000010035000f
:1038c8000044eb000804e0000b0032000200200076
:1038d800037024001e009000ae009000c6f407009c
:1038e8000200200003f02300d5f3070099f3070036
:1038f800000078000a00370002e02f00f36f240070
:103908001e009000ae009000bbf4070002002000eb
:1039180003f02300d3f307008ef3070000007800bc
:10392800000f78001b00370018c0b30032332300a3
:1039380033f72b001e009000ae00900081f30700c3
:103948000000e000010035000044eb000804e0003e
:103958000300320060662800000f78000d00370071
:1039680018c0b3003233230033f723001e00900041
:10397800ae00900075f307000000e00001003c0075
:103988000044eb000804e000020032009099270090
:10399800000f7800a0508000b1508000e00f500068
:1039a800e08f580009003a0060518000343323004a
:1039b80035f723003233230033f72b009e007800bd
:1039c80062000700605188001b003700a05080008b
:1039d800b1508000e00f5000e08f5800090034001b
:1039e800605180003433230035f72300a299290061
:1039f80093e123009e00780054000700605188007e
:103a08000d003700a0508000b1508000e00f50003a
:103a1800e08f580008003d0060518000a4992900fb
:103a280095e12b003233230033f72b009e007800fa
:103a38004600070060518800605180009e0307001f
:103a4800e0508000f15080004051880051518800ba
:103a58004f04be000080fa00000006000000fa00d3
:103a6800142aef00162aef006000b8000051880001
:103a7800115188002c2aef000080fa00000006008f
:103a88000800fa002007980031079800120020006b
:103a98002e009000be009000e00f5000e08f58000c
:103aa80001003c000001eb003e0090004f00de00ea
:103ab80000005100cf80de00008fbe00a2508000c1
:103ac800b35080002e009000be009000800f51007f
:103ad800818f5900140032006000b800005188003e
:103ae80011518800c0508000d15080001e0178001c
:103af8000191b900020178009e019000009ab90076
:103b080084017800030141009e0178000018b80084
:103b18000101410082007800e00f5000e08f58005a
:103b280001003d002c2aef002e019000be019000fc
:103b3800a2508800b35088001e01be00c250880001
:103b4800d35088000080fa00000006000c00fa003c
:103b5800889fbe00000f7800110798002207980080
:103b68003307980044079800550798001e009000f6
:103b78009e04400018c0b3006011b8002e009000e9
:103b8800be009000eff207000000e00001003500e1
:103b98000044eb000804e0000b00320002002000a3
:103ba800037024002e009000be00900012f407005d
:103bb8000200200003f0230021f30700e5f20700cc
:103bc800000078000a00370002e02f00f36f24009d
:103bd8002e009000be00900007f4070002002000ad
:103be80003f023001ff30700daf207000000780053
:103bf800808f5400260034001e0090009e04400070
:103c080018c0b3006011b8004e009000de009000ac
:103c1800ccf207000000e000010035000044eb0092
:103c28000804e0000b0032000200200003702400aa
:103c38004e009000de009000eff307000200200025
:103c480003f02300fef20700c2f20700000078002c
:103c58000a00370002e02f00f36f24004e009000a6
:103c6800de009000e4f307000200200003f02300c8
:103c7800fcf20700b7f2070000007800808f5400bc
:103c880003003d001e0090001e0040006200370047
:103c98001e0090009e04400018c0b3006011b800d8
:103ca8002e009000be009000a6f207000000e00081
:103cb800010035000044eb000804e0000b0032006e
:103cc80002002000037024002e009000be00900027
:103cd800c9f307000200200003f02300d8f2070010
:103ce8009cf20700000078000a00370002e02f006d
:103cf800f36f24002e009000be009000bef3070072
:103d08000200200003f02300d6f2070091f207001a
:103d180000007800808f540020003c0018c0b300d9
:103d28006011b8002e009000be00900085f20700d8
:103d38000000e000010035000044eb000804e0004a
:103d48000b00320002002000037024002e009000b7
:103d5800be009000a8f307000200200003f0230033
:103d6800b7f207007bf20700000078000a0037006e
:103d780002e02f00f36f24002e009000be00900098
:103d88009df307000200200003f02300b5f20700ae
:103d980070f20700000078001f00370018c0b30059
:103da8006011b8004e009000de00900065f2070038
:103db8000000e000010035000044eb000804e000ca
:103dc8000b00320002002000037024004e00900017
:103dd800de00900088f307000200200003f02300b3
:103de80097f207005bf20700000078000a0037002e
:103df80002e02f00f36f24004e009000de009000d8
:103e08007df307000200200003f0230095f207006d
:103e180050f20700000078004f04be000080fa004e
:103e2800000006001000fa00881f7800008fbe000e
:103e38002207980033079800440798005507980010
:103e480066079800770798002e019000be01900041
:103e58001e00be0083f2070018c0b3004e01900098
:103e6800de01900039f207000000e00001003c008c
:103e78000044eb000804e000120032002e0190001c
:103e8800be0190001e00be0076f2070018c0b30005
:103e98006e019000fe0190002af207000000e00089
:103ea800010035000044eb000804e0000500320082
:103eb8002e019000be0190001e00be0069f20700ae
:103ec800120037002e019000be0190001e00be00b7
:103ed80064f2070018c0b3004e019000de019000a4
:103ee80018f207000000e000010034000044eb0075
:103ef8000804e000030032004e009000de0090004d
:103f0800020037006e009000fe0090004f04780019
:103f18000080fa00000006000200fa00004f780056
:103f28001e00fb0091062000810f50000a0032009d
:103f380001072000810f50000400320041062000d4
:103f4800810f50000700320009003700d05280006e
:103f5800e152800007003700f052800001538000d2
:103f680004003700105380002153800001003700ff
:103f78006000b8000080fa00000006000200fa00a5
:103f8800000f78001e007800e20f50000b0032008e
:103f9800e30f50000d003200e10f50000f003a000f
:103fa8006000b800f0528800015388006000b80033
:103fb8001053880021538800110037006000b800b2
:103fc80010538800215388000d0037006000b800a6
:103fd800f052880001538800090037006000b800db
:103fe800d0528800e15288006000b800f052880082
:103ff800015388006000b8001053880021538800de
:104008000080fa00000006000400fa001e00780094
:1040180000f0a000000f78009e007800f0ff2d004f
:1040280000806000000f78001e00780000a0a0004b
:10403800000f78001e0078000070a000000f7800c4
:104048009e007800f0fb2f0000806000000f7800d1
:104058009e007800f0fd2f0000806000000f7800bf
:104068009e00780090ff2f0000806000000f78000d
:104078009e007800e0ff2f0000806000000f7800ad
:104088001e00900000f0a000100798009e0090000d
:10409800f07f2f0000806000100798001e0090003d
:1040a80000a0a000100798009e009000f0f32f00d9
:1040b80000806000100798009e0090007110880032
:1040c8009e00780061108800a0002000a0108800e1
:1040d8008520a9008540a900c1048000f0f82f00c0
:1040e800808060000005200001007000c004880086
:1040f800c1048000f08f2f000080600000a0a000a5
:10410800c00488008d20a8008d40a8004229ef0037
:104118004629ef00304a8000204a88008829ef00ad
:104128008c29ef00604c8000504c88000080fa0019
:10413800000006000000fa00104a80000080fa0023
:10414800000006000200fa00889fbe00004f7800b9
:10415800194a8000384a80000b00370080942000fc
:1041680000004400104078009e4f500002003a00c2
:1041780008007800070037008904e9008800e80093
:10418800f0032000008460000900e000f3ff3a001b
:104198000080eb004f04be000080fa00000006001b
:1041a8000400fa00100798009e009000304a800032
:1041b80080804000f0032000008f60008094200081
:1041c8001e004000104078000080fa000000060041
:1041d8000200fa00000f7800304a80009e0040007c
:1041e800f003200000806000304a8800104a8000f8
:1041f8001e005000104a88000080fa0000000600e7
:104208000000fa004229ef000080fa0000000600d2
:104218000000fa00881f7800c6ff07000000e000d1
:1042280011003200314a8000809420000080400054
:1042380010447800314a8000f0032000808f50003d
:1042480003003200304a80000000e8000100370017
:104258000000eb00304a8800104a80000000e900a6
:10426800104a8800010037000044eb00084078003d
:104278004f0478000080fa00000006000600fa00eb
:10428800881f780010079800210798001e009000ea
:104298000000e000230032002e0090000000e00043
:1042a800200032009e009000010f7800d8ff070020
:1042b80000447800ed4f54000c0032001e009000be
:1042c800084878001e0090000000e80010079800d9
:1042d8002e0090000000e900200798002e009000b2
:1042e8000000e000f1ff3a00080037001e009000cf
:1042f8008040eb00014878001e0090000000e800b4
:10430800100798001e007800070037001e00900074
:104318000000e9008040eb00014878001e007800aa
:10432800010037000000eb004f0478000080fa001d
:10433800000006000000fa00404c80000080fa00ef
:10434800000006000000fa00414c80000004200034
:104358000080680000f0a7000000ea000000e90003
:104368004f00de00004078000080fa0000000600e0
:104378000200fa00004f7800514c8000e0982000bd
:10438800008040001e487800514c8000f003200057
:10439800808f500003003200504c80000000e8007d
:1043a800010037000000eb00504c8800404c8000b2
:1043b8000000e800404c88001e4078000080fa00a9
:1043c800000006000000fa00d0c0b300e8ff0700b4
:1043d8000080fa00000006000400fa0010079800a8
:1043e8009e009000010f7800060037001e00900024
:1043f800104078009e0090008100e80011079800a6
:10440800dbff07001e009000104078000004e00069
:10441800f6ff3a001e0078000080fa00000006004f
:104428000200fa00000f78001e007800eaff07007b
:10443800d0c0b300ceff07001e0078000080fa004d
:10444800000006000000fa0061048000004020001f
:10445800008060000000e0001d003a0012003700f4
:10446800614c8000e09820000080400010407800f7
:104478000000fb0080108800614c8000f0032000e1
:10448800808f500003003200604c80000000e8007c
:10449800010037000000eb00604c8800404c8000b1
:1044a8000000e900404c8800404c80000000e0001b
:1044b800050032007110800000202000008060009c
:1044c8000000e000e6ff32008d40a8000100370040
:1044d80000000000404c8000f00f5000fdff3e003f
:1044e8000080fa00000006000000fa008829ef00aa
:1044f8008c29ef00604c8000504c88000080fa0046
:10450800000006000000fa00cda2a800d622a900eb
:104518000f42a9000080fa00000006000000fa001f
:10452800d1a2a800cda2a900d622a8000f42a800b7
:104538000080fa00000006000200fa00004f780030
:10454800404c80008000e800f0032000808f50007d
:1045580005003e001e40780085ff0700b9ff0700f0
:104568001e407800010037000040eb000080fa0090
:10457800000006000000fa00d0c0b300eeff0700fc
:104588000080fa00000006000600fa0020079800e4
:104598002e009000cdf40700000f7800404c8000fa
:1045a8009e004000f0032000808f500007003e006e
:1045b800ae009000110798002e00900086ff0700bb
:1045c800a0ff07001e009000010037000000eb006c
:1045d8000080fa00000006000600fa002007980094
:1045e8002e009000b9f40700000f7800404c8000be
:1045f8009e004000f0032000808f500009003e001c
:10460800ae009000110798002e00900072ff07007e
:10461800d0c0b30056ff07008aff07001e009000b5
:10462800010037000000eb000080fa0000000600df
:104638000600fa00dc82a9009e007800f0ff27003f
:1046480000806000000f78009e007800f0ff2d00c9
:1046580000806000000f78009e007800f0f02f00c6
:10466800008060000040a000000f78009e007800e5
:1046780030ff2f0000806000000f78009e00780057
:10468800c0ff2f0000806000000f78009e007800b7
:10469800010e8800c221ef00305380000000d100d5
:1046a800200e88009e009000f0df2f000080600040
:1046b800100798009e009000f0bf2f000080600057
:1046c800100798009e009000f0fe2f000080600008
:1046d800100798009e009000e0ff2f000080600007
:1046e800100798001e0090000050a00010079800c6
:1046f8001e0090000010a000100798001e009000f7
:104708000060a000100798001e0090000020a00084
:10471800100798009e009000410e8800610e8000ee
:10472800000c200001007000600e8800f0012000dd
:10473800600e8800ca21ef00d021ef002e00900003
:1047480000b0a000200798002e00900000d0a00024
:1047580020079800ae009000a10e8800d821ef0035
:10476800da21ef0088e0a90031058000f0ff280079
:10477800808060000000260001007000300588007d
:1047880090e0a800c1e1a800dc82a9000080fa003e
:10479800000006000200fa00000f78005053800065
:1047a8009e007800808f5000020036005053800031
:1047b80007003700705380009e007800808f5000fb
:1047c800020031000000eb00010037001e007800f5
:1047d8000080fa00000006000400fa00000f7800cc
:1047e800214798001e007800eaff0700000f7800b4
:1047f8001e0078000000e000020032002e40900009
:10480800010037000040eb00204798002e40900040
:10481800e14f500004003a009e007800c10e880065
:10482800da21ef00090037002e409000e14f4000e8
:1048380004003a00d821ef009e007800d10e8800cd
:1048480002003700d821ef00da21ef000080fa00db
:10485800000006000600fa0010079800414798007b
:104868001e0090006101b800305380008000eb000a
:10487800009ab90004027800028bb9008602780019
:10488800050242000010b8000102420084007800ce
:104898004109dd004f00de0000007100cf08de0096
:1048a800000f7800ce4090001e007800caff070075
:1048b8000080fa00000006000600fa0020079800b1
:1048c8002e00900000f0a7000000ea00000f78001a
:1048d8002e0090000000e0000200340010c0b30079
:1048e8000100370000c0eb0020479800ae40900060
:1048f8001e007800d7ff07000080fa0000000600bd
:104908000200fa00000f78001e0078000000d100b5
:10491800200e88009e0078003153880040538000a4
:104928006101b8001e0078008000eb00009ab90011
:1049380004027800028bb900860278000502420062
:104948000010b80001024200840078004008de0030
:104958000000780050538800605380006101b8005f
:104968001e0078008000eb00009ab900040278006d
:10497800028bb90086027800050242000010b800d8
:1049880001024200840078004008de000000780040
:10499800705388000080fa00000006000000fa004a
:1049a800305380000080fa00000006000200fa0080
:1049b800000f78009e007800415388003053800033
:1049c8006101b8001e0078008000eb00009ab90071
:1049d80004027800028bb9008602780005024200c2
:1049e8000010b80001024200840078004008de0090
:1049f80000007800505388000080fa00000006008c
:104a08000000fa00405380000080fa000000060011
:104a18000200fa00000f78009e00780061538800b9
:104a2800305380006101b8001e0078008000eb0060
:104a3800009ab90004027800028bb9008602780057
:104a4800050242000010b80001024200840078000c
:104a58004008de0000007800705388000080fa00eb
:104a6800000006000000fa00605380000080fa0091
:104a7800000006000200fa00d00e8000c10e80007f
:104a8800810f50000100310001007800000f78000c
:104a98001e0078008000eb00c002dd00040020004a
:104aa800305380008000eb000001be000400be000f
:104ab800d7f00700000078000080fa000000060028
:104ac8000200fa00004f78001e4078000004a2009f
:104ad8000080fb0000407800614060000080fb001f
:104ae800610060004400dd00e2168000f1fe2f0046
:104af8008100610001007000e01688000080fa0063
:104b0800000006000400fa00881f78005452800054
:104b180065528000b0528000c15280000001be0082
:104b28000400be0046ef07007052880081528800da
:104b380074528000855280002054800031548000d7
:104b48000001be000400be002bf00700008fbe006d
:104b580050528000615280006011b800f9ee0700e1
:104b68000000e0000b003a00b0528000c152800003
:104b78003633230037f723003433230035f72b006f
:104b88001e01be00a7fc0700b0528800c152880071
:104b980029003700505280006152800018c0b300cd
:104ba8006011b800e9ee07000000e00001003c00d9
:104bb8000044eb000804e0000b003200b052800013
:104bc800c15280003633230037f72300a499290007
:104bd80095e123001e01be0092fc0700b052880038
:104be800c152880014003700505280006152800082
:104bf80018c0b3006011b800d2ee07000000e00052
:104c0800010035000044eb000804e0000a0032000f
:104c1800b0528000c1528000a699290097e12b006c
:104c28003433230035f72b001e01be007dfc07003e
:104c3800b0528800c1528800b0528000c152800032
:104c480018c0b3006011b800beee07000000e00015
:104c5800010035000044eb000804e0000b003200be
:104c6800b0528000c152800002002000037024006e
:104c7800e1ef07000200200003f02300f0ee070038
:104c8800b4ee0700000078000a003700b052800038
:104c9800c152800002e02f00f36f2400d6ef070016
:104ca8000200200003f02300eeee0700a9ee070043
:104cb8000000780000ff0700c10e8000d00e8000c1
:104cc800008040000000e00015003a00905280008b
:104cd800a15280006011b800c2ee07000000e00099
:104ce8000f00320049cabf000004e0000900340088
:104cf80090528000a1528000505288006152880072
:104d08006000b80090528800a1528800496aef00fc
:104d18000300370049cabf000040e80049eab7006d
:104d28004f0478000080fa00000006000600fa0030
:104d3800889fbe00100798002107980047fb0700ce
:104d480019c0b3006011b8001e009000ae009000ba
:104d58007eee07000000e00001003c008044eb000c
:104d680018c0b3006011b8001e009000ae0090009b
:104d780074ee07000000e000010035000044eb007d
:104d880008c05400004f78001e019000ae0190004a
:104d9800525288006352880048cabf008000fb0056
:104da8001e00fb000088b900000078000000e00049
:104db80007003d006000b80050528800615288002a
:104dc8001e019000ae01900092528800a352880004
:104dd8009e40780083a42000814978004f04be00db
:104de8000080fa00000006000000fa00d902a800be
:104df800c602a800d902a800d802a800d822a80094
:104e0800a802a800a822a800c682a800c6a2a800d6
:104e1800a882a800a8a2a800d222a900d202a900ac
:104e2800d602a900d622a900cdc2a800cda2a90009
:104e3800d842a900d862a900d882a900d8a2a9009e
:104e48000080fa00000006000000fa00401680000a
:104e58006100600000f0a7000000ea000000e9001f
:104e68004f00de00d2168000011020008100610092
:104e78000100e00002003a00810020000100370034
:104e88008000eb0081004000d016800061006000c7
:104e98000000e00002003a00400020000100370056
:104ea8000000eb0080804000d016800062006000a7
:104eb8000000e00002003a00200020000100370056
:104ec8000000eb00008040000080fa0000000600af
:104ed8000200fa00004f78001e80fb0061006000ad
:104ee800b2168000e1ff2f00810061000100700010
:104ef800b01688000080fa00000006000200fa00e0
:104f0800000f78001e007800e30f500010003200f8
:104f1800e30f500005003c00e10f5000080032008c
:104f2800e20f5000080032000f003700e40f500075
:104f380009003200e50f5000090032000a0037006e
:104f480040168000090037007016800007003700ff
:104f5800a016800005003700d01680000300370037
:104f680000178000010037000080eb000080fa0085
:104f7800000006000000fa00401680004300de0032
:104f8800614060000080fb0000f0a7000000ea001c
:104f98000000ea004f00de00004078000080fa00c0
:104fa800000006000000fa00401680004400de0001
:104fb800614060000080fb0000f0a7000000ea00ec
:104fc8000000ea004f00de00004078000080fa0090
:104fd800000006000000fa00401680004500de00d0
:104fe800614060000080fb0000f0a7000000ea00bc
:104ff8000000ea004f00de00004078000080fa0060
:10500800000006000400fa0000802000004a880022
:105018000000eb00000f78000c0037001e00e800cd
:105028006a00b900800078000080200000814000fc
:105038001e0078006a00b900800078000080200017
:1050480000804000020878001e0fe8001e0078006b
:10505800fe0f5000f1ff36003629ef000000eb008c
:10506800000f780010003700028020001e00780032
:105078006a00b9000000780000004100100798009d
:105088001e0090008000eb00210098001e00900098
:105098008000eb00110098001e0090008000eb00db
:1050a800410098001e0fe8001e007800fe0f500017
:1050b800edff36000080fa00000006000400fa0048
:1050c8001000200010079800004a80000000e0004f
:1050d80002003a000000eb000d003700014a800092
:1050e800010f7800050037001e0090000000e8005e
:1050f800100798001e007800100f78001e00780036
:10510800100078000000e000f7ff3a001e00900051
:105118000080fa00000006000000fa00e7ff070020
:1051280001022000008050000080fa000000060004
:105138000000fa00001420000080fa0000000600b9
:105148000600fa0020079800004a80000000e000ee
:1051580002003a000000eb0017003700014a800007
:10516800010f7800004a800010007800004a88008b
:105178001e0078008000eb00010878009e0078008f
:10518800110798001e0090008000eb0011009800a5
:105198001e0090008000eb00410098001e00900067
:1051a8008000eb00210098001e009000ae009000e7
:1051b800010878001e0090000080fa000000060038
:1051c8000400fa00100798009e009000010f780074
:1051d800014a80001e007800010878009e007800cf
:1051e800014a88000080fa00000006000400fa0066
:1051f8009e007800f0ff2d0000806000000f78000e
:105208009e0078000070200001007000000f7800f8
:105218009e007800f0f72f0000806000000f7800f3
:105228009e007800f0fb2f0000806000000f7800df
:105238001e0078000050a000000f78009e00780043
:1052480070fe2f0000806000000f78009e0078003c
:10525800b0ff2f0000806000000f78009e007800eb
:10526800d0ff2f0000806000000f78009e007800bb
:10527800110988009e009000f0ef2f000080600068
:10528800100798009e009000f0f72f000080600043
:10529800100798009e009000f0f82f000080600032
:1052a8000040a000100798009e0090002109880087
:1052b8000080eb0040098800908b8400300988004a
:1052c8008900a9009100a9000080fa0000000600ea
:1052d8000000fa00300980000080fa000000060093
:1052e8000000fa00c05380000080fa0000000600a9
:1052f8000000fa00c153800080538000000178004c
:10530800110009008200d8000080fa0000000600a1
:105318000200fa00004f78001e80fb006100600068
:105328004700dd0012098000f1f72f0081006100bd
:1053380001007000100988000080fa0000000600d3
:105348000200fa00000f78001e0078008000eb00d1
:1053580002e224000289b900020178006002b90063
:10536800840178000301410003e224000300b8002f
:105378000101410082007800a0538800b1538800e1
:105388001e0078006c00b900000078009053880077
:105398000080fa00000006000000fa00d0538000e8
:1053a8000080fa00000006000000fa00a053800008
:1053b800b15380000080fa00000006000200fa00e5
:1053c8000000eb000a000700000f7800e113290035
:1053d8001e007800320007001e0078004300070016
:1053e8001e007800100007000080fa000000060088
:1053f8000800fa00300798000000eb00000f780062
:105408003e0090000000e00004003a0000c02f00b9
:10541800f107200010079800210798000000eb0012
:105428000080fa00000006000200fa00000f780071
:105438000000eb000080fa00000006000600fa00f9
:105448001007980041479800f0032000000f7800eb
:105458001e009000002090009e0090004e41900099
:10546800827078008000e8001e00900001209800fb
:105478001e009000002090001e0060009e0f50004b
:1054880004003a001e0090001800070010002000d9
:10549800010037000000eb000080fa000000060061
:1054a8000400fa00000f7800110798000800370080
:1054b8001e009000104078009e0090008100e800d7
:1054c80011079800804078001e007800dbff070075
:1054d8001e009000104078000004e000f4ff3a003d
:1054e8000000eb000080fa00000006000200fa004d
:1054f800000f78001e007800a02090001020900077
:105508000202200067ec0700013b80000000280031
:10551800008060000000e000fbff3a00013b8000d3
:1055280000002800008060000000e000fbff3a0057
:0c5538000000eb000080fa0000000600fc
:020000040000fa
:105544005a0a00000c000000020000000ad7a30061
:105554003b17b70051396f0012033a00140a0000d8
:105564001a00000000000000840a0000040000008b
:1055740002000000cdcccc003e000000480a000030
:105584001200000000000000ce09000046000000e8
:1055940000000000780a000006000000000000007f
:1055a400700a000008000000020000009001b00032
:1055b400048084001e000000660a00000a00000047
:1055c400020000003e063200f3ee05006626ef00fe
:1055d40000000000420900008c00000000000000f0
:1055e4007e0a000006000000000000008c0a000093
:1055f400020000000000000000080000420100005a
:1056040000000000880a00000400000002000000fe
:105614000000c800420000002e0a00001a0000002a
:10562400000000008e0a00000200000002000000da
:1056340010000000900a00000200000000000000ba
:045644000000000062
:020000040000fa
:105648000400fa0040f3070031f30700000f780068
:10565800ac000700100798009e0090001e0078001c
:105668006df407001e0090008df407000080fa001a
:10567800000006000a00fa0033f3070024f30700cd
:10568800000f7800cef50700100798009e009000e4
:105698001e00780060f407001e00900080f40700e8
:1056a8009800070020079800ae0090001e007800c0
:1056b80059f407002e00900079f40700e70007006e
:1056c80030079800be0090001e00780052f40700d2
:1056d8003e00900072f40700601529003bf40700b3
:1056e80040079800ce0090001e0078004af407009a
:1056f8006200200081a82000a015290047f50700b6
:10570800800078001e00780043f407000080fa004b
:10571800000006000000fa0040b222005bf5070016
